S0120000626F6F746C6F616465722E73726563E7
S21401F0000C9446F80C9463F80C9463F80C9463F82B
S21401F0100C9463F80C9463F80C9463F80C9463F8FE
S21401F0200C9463F80C9463F80C9463F80C9463F8EE
S21401F0300C9463F80C9463F80C9463F80C9463F8DE
S21401F0400C9463F80C9463F80C9463F80C9463F8CE
S21401F0500C9463F80C9463F80C9463F80C9463F8BE
S21401F0600C9463F80C9463F80C9463F80C9463F8AE
S21401F0700C9463F80C9463F80C9463F80C9463F89E
S21401F0800C9463F80C9463F80C9463F811241FBE77
S21401F090CFEFD0E1DEBFCDBF11E0A0E0B1E0E6ECFE
S21401F0A0F9EF01E00BBF02C007900D92A030B10747
S21401F0B0D9F711E0A0E0B1E001C01D92A030B10780
S21401F0C0E1F70C94E6FB0C9400F8000000000895AC
S21401F0D085B7806285BF889508951ABA17BA11BA9E
S21401F0E082E082B983B9D29AD09AD19A8B989FE757
S21401F0F08091610089238093610082B1892382B95E
S21401F100A79AA69AA59AA49AA39AA29AA19AA09A0D
S21401F1108D9A8F9A8E9ABB9887B3892387BB159A47
S21401F120D79AD39A1D9ADF9ADA9A0895992780FF7B
S21401F13002C0DA9801C0DA9A81FF02C0D99801C0EC
S21401F140D99A82FF02C0D8980895D89A08951F9335
S21401F150CF93C7E010E08C2F0E9496F827E030E0AE
S21401F1608FEF9FE70197F1F72150304037FFF8CF37
S21401F170C6951F5F133078F38C2F0E9496F8CF91B7
S21401F1801F910895CF93C0E087E00E9496F823E090
S21401F19030E08FEF9FE70197F1F72150304037FFBE
S21401F1A0F8CF80E00E9496F823E030E08FEF9FE7EB
S21401F1B00197F1F72150304037FFF8CFCF5FC330CA
S21401F1C018F3CF91089587FF02C0DF9A01C0DF9838
S21401F1D0880F99270895880FCE99816099270895F9
S21401F1E00F931F93CF93082FC0E01C2F802F0E94F0
S21401F1F0E3F8082FDB9A8C2F0E94EBF8C82FDB98D8
S21401F2001F5F183098F39927CF911F910F9108959A
S21401F210EF92FF921F93CF93DF93CDB7DEB724977C
S21401F2200FB6F894DEBF0FBECDBF9C0140E050E0A4
S21401F23088E68983FE013196C901880F892F881FC8
S21401F240990B91958F708183822F880F8B834C83C6
S21401F250DB981D98142F7F01F70181917F010E9491
S21401F260F0F81F5F1430C0F310E080E00E94F0F861
S21401F2701F5F1430D0F3DB9ADB9824960FB6F89410
S21401F280DEBF0FBECDBFDF91CF911F91FF90EF90F4
S21401F29008951D9A0895EF92FF920F931F93CF93AF
S21401F2A0DF93EC01E880F9800A811B81D801C70150
S21401F2B09070A070B0700097A105B10541F40E944E
S21401F2C049F9BB27A12F902F8F2D0E9408F908948A
S21401F2D0E11CF11C011D111DE882F9820A831B83C2
S21401F2E080E00E94F0F89927DF91CF911F910F914E
S21401F2F0FF90EF90089588E190E029E00FB6F8942A
S21401F300A89581BD0FBE21BDFFCFAF92BF92CF9210
S21401F310DF92EF92FF920F931F93CF93DF935C01DF
S21401F3206A017B01E9014050504F6140704018F07E
S21401F33080E090E023C082EF9FE00E94CAFC8C012F
S21401F34084EF9FE00E94CAFC0817190779F08F5FC7
S21401F3509F4F61F06FEF84EF9FE00E94D7FC6FEF45
S21401F36085EF9FE00E94D7FCE199FECF9E01B70191
S21401F370A601C5010E9431FC81E090E0DF91CF91AA
S21401F3801F910F91FF90EF90DF90CF90BF90AF90BD
S21401F39008952F923F924F925F926F927F928F9233
S21401F3A09F92AF92BF92CF92DF92EF92FF920F930E
S21401F3B01F93CF93DF93CDB7DEB7C450D1400FB6BE
S21401F3C0F894DEBF0FBECDBFDC01CB01BA2FA92F4B
S21401F3D0982F8827FE01EF5FFE4F80839183A283DB
S21401F3E0B3836624772443016401530184017301C6
S21401F3F0CE018F5F9E4F0E944BF99927AA27BB2704
S21401F4000E2C04C0880F991FAA1FBB1F0A94D2F79F
S21401F410682A792A8A2A9B2A0894A11CB11CC11C35
S21401F420D11C88E090E0A0E0B0E0E80EF91E0A1FCB
S21401F4301B1F94E0A916B104C104D104C8F222240A
S21401F440332421016201510182017101CE018F5FD6
S21401F4509E4F0E944BF99927AA27BB270E2C04C062
S21401F460880F991FAA1FBB1F0A94D2F7282A392A88
S21401F4704A2A5B2A0894A11CB11CC11CD11C88E035
S21401F48090E0A0E0B0E0E80EF91E0A1F1B1F94E012
S21401F490A916B104C104D104C8F2AA24BB2465018B
S21401F4A0A214B304C404D50408F04AC0A114B104DC
S21401F4B0C104D10421F1D401C3019070A070B070D1
S21401F4C00097A105B105D9F41127092DF82CE72CD1
S21401F4D00894E108F108010911098E2D0E9496F899
S21401F4E0B02FAF2D9E2D882720E031E0AC01BD0165
S21401F4F0CE0101960E9485F9882309F445C0D401FE
S21401F500C3019070A070B0708E010F5F1F4F080F7F
S21401F510191FCE018F5F9E4F0E944BF9D8018C9325
S21401F5200894A11CB11CC11CD11C0894611C711C3F
S21401F530811C911CA214B304C404D50408F4B6CFEC
S21401F5401127092DF82CE72C8FEF90E0A0E0B0E012
S21401F550682279228A229B22611471048104910413
S21401F56029F40894E108F10801091109B02FAF2D1B
S21401F5709E2D882720E031E0AC01BD01CE01019629
S21401F5800E9485F9882319F480E090E004C00E9467
S21401F59049F981E090E0CC5FDE4F0FB6F894DEBF0C
S21401F5A00FBECDBFDF91CF911F910F91FF90EF90CE
S21401F5B0DF90CF90BF90AF909F908F907F906F908D
S21401F5C05F904F903F902F9008950F931F93CF9386
S21401F5D0DF938C010E94CAFCEC0121968E5F9F4F3F
S21401F5E070F46C2FC8010E94D7FC8D2F99270F5FEE
S21401F5F01F4F682FC8010E94D7FCE199FECFDF910B
S21401F600CF911F910F910895FF920F931F93F82E9C
S21401F6108CEE9FE00E94CAFC8C0183E0000F111F54
S21401F6208A95E1F78F2D992787709070082B192BF3
S21401F630602F8CEE9FE00E94D7FC812F9927682FC0
S21401F6408DEE9FE00E94D7FCE199FECF1F910F91AE
S21401F650FF9008958EEF9FE00E94C2FC8460682FA1
S21401F6608EEF9FE00E94D7FCE199FECF0895EF92BE
S21401F670FF920F931F9381EF9FE00E94C2FC8F3F82
S21401F68019F0682F6F5F01C061E0162F80EF9FE0D1
S21401F6900E94C2FC082F153008F459C08F3F61F153
S21401F6A06FEF80EF9FE00E94D7FCE199FECF84EFD9
S21401F6B09FE00E94CAFCAA27BB278F5F9F4FA040EE
S21401F6C0B04091F48EEF9FE00E94C2FC80FD03C023
S21401F6D00E94C2F8FDCF65E081EF9FE00E94D7FC53
S21401F6E0E199FECF0E947BF96FEF81EF9FE00E94C8
S21401F6F0D7FCE199FECF2BC08EEF9FE00E94C2FCA3
S21401F70080FD25C00E94C2F860E082EF9FE00E9463
S21401F710D7FC60E083EF9FE00E94D7FCE199FECF23
S21401F72060E070E080E090E00E94C9F9882321F44F
S21401F7300E942AFB0E947BF960E084EF9FE00E9412
S21401F740D7FC60E085EF9FE00E94D7FC1FEF612F9A
S21401F75081EF9FE00E94D7FCE199FECF0F3F31F188
S21401F76082EF9FE00E94CAFC7C0100271127C80196
S21401F770B7010E94C9F9882321F40E942AFB0E943E
S21401F7807BF96E2D84EF9FE00E94D7FCBB27A12F4B
S21401F790902F8F2D682F85EF9FE00E94D7FC6FEF8B
S21401F7A080EF9FE00E94D7FCE199FECF0E94A7F868
S21401F7B06FEF81EF9FE00E94D7FCE199FECF0C949A
S21401F7C000001F910F91FF90EF900895CFEFD0E1C9
S21401F7D0DEBFCDBFF89488E190E020E00FB6F89444
S21401F7E0A89581BD0FBE21BD0E946DF885E899EFF1
S21401F7F02C01662477240E94A7F8AA24BB24C6EF0E
S21401F800DFE0450173016201082C04C0F694E79419
S21401F810D794C7940A94D2F7CE010E94C2FCC816A8
S21401F82021F06C2DCE010E94D7FC0894A11CB11CBE
S21401F83088E090E0880E991E219694E0A916B104FE
S21401F84008F30E9437FB80E090E00C94E2FC84B160
S21401F85095B1089500000895009711F00197F1F70A
S21401F86008958F929F92AF92BF92CF92DF92EF92BE
S21401F870FF920F931F93CF93DF934C017A018B0175
S21401F8808091680080FDFCCFE199FECF83E0F7010F
S21401F89000935B0080936800E8958091680086FF7E
S21401F8A00EC08091680080FDFCCFE199FECF81E11A
S21401F8B080936800E8958091680086FDF2CFAA24BF
S21401F8C0BB246501E901D695C795CE01AA27BB27BA
S21401F8D0A816B906CA06DB0648F5B801A701809145
S21401F8E0680080FDFCCFE199FECF21E0F501EA0D2D
S21401F8F0FB1DE80DF91D808191810C01FA016093D1
S21401F9005B0020936800E89511240894A11CB11CA3
S21401F910C11CD11C4E5F5F4F6F4F7F4FCE01AA2790
S21401F920BB27A816B906CA06DB06C8F2809168008E
S21401F93080FDFCCFE199FECF85E0F70100935B00E7
S21401F94080936800E8958091680086FF0EC08091DC
S21401F950680080FDFCCFE199FECF81E180936800CD
S21401F960E8958091680086FDF2CFDF91CF911F91D7
S21401F9700F91FF90EF90DF90CF90BF90AF909F9048
S21401F9808F900895E199FECF9FBB8EBBE09A992791
S21401F9908DB30895E199FECF9FBB8EBBE09A019689
S21401F9A00DB29FBB8EBBE09A802D9DB30895E19961
S21401F9B0FECF9FBB8EBB6DBB0FB6F894E29AE19A61
S20A01F9C00FBE0895FFCF03
S80401F0000A
