S0120000626F6F746C6F616465722E73726563E7
S21401F0000C9446F80C9463F80C9463F80C9463F82B
S21401F0100C9463F80C9463F80C9463F80C9463F8FE
S21401F0200C9463F80C9463F80C9463F80C9463F8EE
S21401F0300C9463F80C9463F80C9463F80C9463F8DE
S21401F0400C9463F80C9463F80C9463F80C9463F8CE
S21401F0500C9463F80C9463F80C9463F80C9463F8BE
S21401F0600C9463F80C9463F80C9463F80C9463F8AE
S21401F0700C9463F80C9463F80C9463F80C9463F89E
S21401F0800C9463F80C9463F80C9463F811241FBE77
S21401F090CFEFD0E1DEBFCDBF11E0A0E0B1E0E6E00A
S21401F0A0FAEF01E00BBF02C007900D92A030B10746
S21401F0B0D9F711E0A0E0B1E001C01D92A030B10780
S21401F0C0E1F70C94FAFB0C9400F800000000089598
S21401F0D085B7806285BF88950895D29AD09AD19ACD
S21401F0E0D698A79AA69AA59AA49AA39AA29AA19AFA
S21401F0F0A09A8C9A8F9A8E9ABB98BF98D498DC98CF
S21401F100D39A8B9A8D9ADB9ADA9AD89AD99A0895D5
S21401F110992780FF02C0DA9801C0DA9A81FF02C0FF
S21401F120D99801C0D99A82FF02C0D8980895D89A72
S21401F13008951F93CF93C7E010E08C2F0E9488F8A4
S21401F14020E030E08FEF9FE70000000000000000A5
S21401F1500000000000000000019718161906A4F32D
S21401F1602F5F3F4F283031056CF3C6951F5F133074
S21401F17020F38C2F0E9488F8CF911F910895CF938A
S21401F180C0E087E00E9488F820E030E08FEF9FE73C
S21401F1900000000000000000000000000000000069
S21401F1A0019718161906A4F32F5F3F4F2430310537
S21401F1B06CF380E00E9488F820E030E08FEF9FE754
S21401F1C00000000000000000000000000000000039
S21401F1D0019718161906A4F32F5F3F4F2430310507
S21401F1E06CF3CF5FC33008F4CCCFCF91089587FF7F
S21401F1F002C0939A01C09398880F99270895880FA3
S21401F20082998160992708950F931F93CF93082FB2
S21401F210C0E01C2F802F0E94F7F8082F959A8C2F9C
S21401F2200E94FFF8C82F95981F5F183098F399270A
S21401F230CF911F910F910895EF92FF921F93CF9355
S21401F240DF93CDB7DEB724970FB6F894DEBF0FBEB7
S21401F250CDBF9C0140E050E088E68983FE013196EF
S21401F260C901880F892F881F990B91958F7081830B
S21401F270822F880F8B834C839598DB98142F7F0100
S21401F280F70181917F010E9404F91F5F1430C0F3DA
S21401F29010E080E00E9404F91F5F1430D0F3959AC5
S21401F2A0959824960FB6F894DEBF0FBECDBFDF91BA
S21401F2B0CF911F91FF90EF900895DB9A0895EF92FA
S21401F2C0FF920F931F93CF93DF93EC01E880F980B1
S21401F2D00A811B81D801C7019070A070B070009799
S21401F2E0A105B10541F40E945DF9BB27A12F902F1E
S21401F2F08F2D0E941CF90894E11CF11C011D111DA3
S21401F300E882F9820A831B8380E00E9404F9992728
S21401F310DF91CF911F910F91FF90EF90089588E1B3
S21401F32090E029E00FB6F894A89581BD0FBE21BDE7
S21401F330FFCFAF92BF92CF92DF92EF92FF920F93E1
S21401F3401F93CF93DF935C016A017B01E901405073
S21401F350504F6140704018F080E090E023C082EF8B
S21401F3609FE00E94EAFC8C0184EF9FE00E94EAFC89
S21401F3700817190779F08F5F9F4F61F06FEF84EFE1
S21401F3809FE00E94F7FC6FEF85EF9FE00E94F7FC7D
S21401F390E199FECF9E01B701A601C5010E9451FC6D
S21401F3A081E090E0DF91CF911F910F91FF90EF9058
S21401F3B0DF90CF90BF90AF9008952F923F924F92DB
S21401F3C05F926F927F928F929F92AF92BF92CF92EF
S21401F3D0DF92EF92FF920F931F93CF93DF93CDB7F8
S21401F3E0DEB7C450D1400FB6F894DEBF0FBECDBF16
S21401F3F0DC01CB01BA2FA92F982F8827FE01EF5FDA
S21401F400FE4F80839183A283B383662477244301CE
S21401F4106401530184017301CE018F5F9E4F0E94E8
S21401F4205FF99927AA27BB270E2C04C0880F991FBE
S21401F430AA1FBB1F0A94D2F7682A792A8A2A9B2A0E
S21401F4400894A11CB11CC11CD11C88E090E0A0E06E
S21401F450B0E0E80EF91E0A1F1B1F94E0A916B104BE
S21401F460C104D104C8F222243324210162015101CE
S21401F47082017101CE018F5F9E4F0E945FF999272D
S21401F480AA27BB270E2C04C0880F991FAA1FBB1FD3
S21401F4900A94D2F7282A392A4A2A5B2A0894A11CF8
S21401F4A0B11CC11CD11C88E090E0A0E0B0E0E80EE1
S21401F4B0F91E0A1F1B1F94E0A916B104C104D1044A
S21401F4C0C8F2AA24BB246501A214B304C404D5045B
S21401F4D008F04AC0A114B104C104D10421F1D40139
S21401F4E0C3019070A070B0700097A105B105D9F462
S21401F4F01127092DF82CE72C0894E108F1080109D9
S21401F50011098E2D0E9488F8B02FAF2D9E2D8827C9
S21401F51020E031E0AC01BD01CE0101960E9499F9CF
S21401F520882309F445C0D401C3019070A070B0705F
S21401F5308E010F5F1F4F080F191FCE018F5F9E4F61
S21401F5400E945FF9D8018C930894A11CB11CC11CC0
S21401F550D11C0894611C711C811C911CA214B3045B
S21401F560C404D50408F4B6CF1127092DF82CE72CCE
S21401F5708FEF90E0A0E0B0E0682279228A229B22F9
S21401F580611471048104910429F40894E108F108D6
S21401F59001091109B02FAF2D9E2D882720E031E0FB
S21401F5A0AC01BD01CE0101960E9499F9882319F498
S21401F5B080E090E004C00E945DF981E090E0CC5FBD
S21401F5C0DE4F0FB6F894DEBF0FBECDBFDF91CF91F1
S21401F5D01F910F91FF90EF90DF90CF90BF90AF906B
S21401F5E09F908F907F906F905F904F903F902F905D
S21401F5F008950F931F93CF93DF938C010E94EAFC2B
S21401F600EC0121968E5F9F4F70F46C2FC8010E940B
S21401F610F7FC8D2F99270F5F1F4F682FC8010E9497
S21401F620F7FCE199FECFDF91CF911F910F910895DD
S21401F630FF920F931F93F82E8CEE9FE00E94EAFC38
S21401F6408C0183E0000F111F8A95E1F78F2D992712
S21401F65087709070082B192B602F8CEE9FE00E940C
S21401F660F7FC812F9927682F8DEE9FE00E94F7FC0B
S21401F670E199FECF1F910F91FF9008958EEF9FE0C5
S21401F6800E94E2FC8460682F8EEF9FE00E94F7FCE8
S21401F690E199FECF0895EF92FF920F931F9381EFAA
S21401F6A09FE00E94E2FC8F3F19F0682F6F5F01C058
S21401F6B061E0162F80EF9FE00E94E2FC082F1530D4
S21401F6C008F459C08F3F61F16FEF80EF9FE00E9411
S21401F6D0F7FCE199FECF84EF9FE00E94EAFCAA279F
S21401F6E0BB278F5F9F4FA040B04091F48EEF9FE005
S21401F6F00E94E2FC80FD03C00E94BFF8FDCF65E0DA
S21401F70081EF9FE00E94F7FCE199FECF0E948FF9FE
S21401F7106FEF81EF9FE00E94F7FCE199FECF2BC0CF
S21401F7208EEF9FE00E94E2FC80FD25C00E94BFF89C
S21401F73060E082EF9FE00E94F7FC60E083EF9FE0CD
S21401F7400E94F7FCE199FECF60E070E080E090E077
S21401F7500E94DDF9882321F40E943EFB0E948FF966
S21401F76060E084EF9FE00E94F7FC60E085EF9FE099
S21401F7700E94F7FC1FEF612F81EF9FE00E94F7FCCC
S21401F780E199FECF0F3F31F182EF9FE00E94EAFC44
S21401F7907C0100271127C801B7010E94DDF98823E3
S21401F7A021F40E943EFB0E948FF96E2D84EF9FE0AC
S21401F7B00E94F7FCBB27A12F902F8F2D682F85EF76
S21401F7C09FE00E94F7FC6FEF80EF9FE00E94F7FC3E
S21401F7D0E199FECF0E9499F86FEF81EF9FE00E94BA
S21401F7E0F7FCE199FECF0C9400001F910F91FF905A
S21401F7F0EF900895CFEFD0E1DEBFCDBFF89488E15A
S21401F80090E020E00FB6F894A89581BD0FBE21BD0B
S21401F8100E946DF889E999EF2C01662477240E94ED
S21401F82099F8AA24BB24C6EFDFE045017301620103
S21401F830082C04C0F694E794D794C7940A94D2F798
S21401F840CE010E94E2FCC81621F06C2DCE010E946A
S21401F850F7FC0894A11CB11C88E090E0880E991E64
S21401F860219694E0A916B10408F30E944BFB80E0B0
S21401F87090E00C9402FD84B195B10895000000005B
S21401F88008951816190664F4000000000000000030
S21401F8900000000000000000019718161906A4F3E6
S21401F8A008958F929F92AF92BF92CF92DF92EF927E
S21401F8B0FF920F931F93CF93DF934C017A018B0135
S21401F8C08091680080FDFCCFE199FECF83E0F701CF
S21401F8D000935B0080936800E8958091680086FF3E
S21401F8E00EC08091680080FDFCCFE199FECF81E1DA
S21401F8F080936800E8958091680086FDF2CFAA247F
S21401F900BB246501E901D695C795CE01AA27BB2779
S21401F910A816B906CA06DB0648F5B801A701809104
S21401F920680080FDFCCFE199FECF21E0F501EA0DEC
S21401F930FB1DE80DF91D808191810C01FA01609390
S21401F9405B0020936800E89511240894A11CB11C63
S21401F950C11CD11C4E5F5F4F6F4F7F4FCE01AA2750
S21401F960BB27A816B906CA06DB06C8F2809168004E
S21401F97080FDFCCFE199FECF85E0F70100935B00A7
S21401F98080936800E8958091680086FF0EC080919C
S21401F990680080FDFCCFE199FECF81E1809368008D
S21401F9A0E8958091680086FDF2CFDF91CF911F9197
S21401F9B00F91FF90EF90DF90CF90BF90AF909F9008
S21401F9C08F900895E199FECF9FBB8EBBE09A992751
S21401F9D08DB30895E199FECF9FBB8EBBE09A019649
S21401F9E00DB29FBB8EBBE09A802D9DB30895E19921
S21401F9F0FECF9FBB8EBB6DBB0FB6F894E29AE19A21
S20A01FA000FBE0895FFCFC2
S80401F0000A
