S0120000626F6F746C6F616465722E73726563E7
S21401F0000C9466F80C9483F80C9483F80C9483F8AB
S21401F0100C9483F80C9483F80C9483F80C9483F87E
S21401F0200C9483F80C9483F80C9483F80C9483F86E
S21401F0300C9483F80C9483F80C9483F80C9483F85E
S21401F0400C9483F80C9483F80C9483F80C9483F84E
S21401F0500C9483F80C9483F80C9483F80C9483F83E
S21401F0600C9483F80C9483F80C9483F80C9483F82E
S21401F0700C9483F80C9483F80C9483F80C9483F81E
S21401F0800C9483F80C9483F80C9483F80C9483F80E
S21401F0900C9483F80C9483F80C9483F80C9483F8FE
S21401F0A00C9483F80C9483F80C9483F80C9483F8EE
S21401F0B00C9483F80C9483F80C9483F80C9483F8DE
S21401F0C00C9483F80C9483F80C9483F811241FBED7
S21401F0D0CFEFD1E2DEBFCDBF12E0A0E0B2E0EEE8B6
S21401F0E0F9EF01E00BBF02C007900D92A030B10707
S21401F0F0D9F712E0A0E0B2E001C01D92A030B1073E
S21401F100E1F70C9402FC0C9400F80000000008954E
S21401F11085B7816085BF8895089580917800909124
S21401F120790008950000000008951816190654F491
S21401F13000000000000000000000000000000000C9
S21401F1400197F3CF08950A9A089A099A3F9A3E9A28
S21401F1503D9A3C9A3B9A3A9A399A389A2398229A37
S21401F160219A0E9A0D9A20986E9856985498279838
S21401F17056980C9814980B9A539A559A139A129A71
S21401F180109A119A0895992780FF02C0129801C01B
S21401F190129A81FF02C0119801C0119A82FF02C023
S21401F1A010980895109A08951F93CF93C7E010E022
S21401F1B08C2F0E94C3F820E030E08FEF9FE700001D
S21401F1C000000000000000000000000000000197A1
S21401F1D018161906A4F32F5F3F4F283031056CF33C
S21401F1E0C6951F5F133020F38C2F0E94C3F8CF9172
S21401F1F01F910895CF93C0E087E00E94C3F820E0F6
S21401F20030E08FEF9FE700000000000000000000E4
S21401F210000000000000019718161906A4F32F5FDE
S21401F2203F4F243031056CF380E00E94C3F820E0A4
S21401F23030E08FEF9FE700000000000000000000B4
S21401F240000000000000019718161906A4F32F5FAE
S21401F2503F4F243031056CF3CF5FC33008F4CCCF79
S21401F260CF91089587FF02C05B9A01C05B98880F13
S21401F27099270895880F4A998160992708950F93D1
S21401F2801F93CF93082FC0E017E0802F0E9432F91A
S21401F290082F5D9A8C2F0E943AF9C82F5D9811505D
S21401F2A017FFF3CF9927CF911F910F910895EF92F2
S21401F2B0FF921F93CF93DF93CDB7DEB724970FB698
S21401F2C0F894DEBF0FBECDBF9C0188E68983FE01A0
S21401F2D03196C901880F892F881F990B91958F70D8
S21401F2E08183822F880F8B831C825D9813987F0100
S21401F2F013E0F70181917F010E943FF9115017FF3A
S21401F300F8CF13E080E00E943FF9115017FFFACFC3
S21401F3105D9A5D9824960FB6F894DEBF0FBECDBFFA
S21401F320DF91CF911F91FF90EF900895139A089562
S21401F330EF92FF920F931F93CF93DF93EC01E88038
S21401F340F9800A811B81EE2041F40E9496F9BB27C1
S21401F350A12F902F8F2D0E9457F90894E11CF11CC4
S21401F360011D111DE882F9820A831B8380E00E9439
S21401F3703FF99927DF91CF911F910F91FF90EF9061
S21401F380089588E190E029E00FB6F894A895809357
S21401F39060000FBE20936000FFCF0F931F93CF93A3
S21401F3A0DF93EC01403080EF580781E0680780E08A
S21401F3B0780718F080E090E022C0A2EFBFE00E943C
S21401F3C0B5FC8F01A4EFBFE00E94B5FCCF010E177C
S21401F3D01F0781F08F5F9F4F69F0A4EFBFE08FEFAB
S21401F3E0082E0E94BAFCA5EFBFE0082E0E94BAFCC8
S21401F3F0F999FECFCE010E9442FC81E090E0DF91B8
S21401F400CF911F910F9108952F923F924F925F9245
S21401F4106F927F928F929F92AF92BF92CF92DF921E
S21401F420EF92FF920F931F93CF93DF93CDB7DEB783
S21401F430C450D1400FB6F894DEBF0FBECDBFDC017D
S21401F440CB01BA2FA92F982F8827FE01EF5FFE4F19
S21401F45080839183A283B383662477244301840146
S21401F4607301A3E0AA2EB12CC12CD12CCE018F5F43
S21401F4709E4F0E9498F99927AA27BB270E2C04C0F5
S21401F480880F991FAA1FBB1F0A94D2F7682A792AE8
S21401F4908A2A9B2A0894A108B108C108D10888E0E5
S21401F4A090E0A0E0B0E0E80EF91E0A1F1B1FD7FE91
S21401F4B0DDCF22243324210182017101F3E0AF2E36
S21401F4C0B12CC12CD12CCE018F5F9E4F0E9498F992
S21401F4D09927AA27BB270E2C04C0880F991FAA1F9D
S21401F4E0BB1F0A94D2F7282A392A4A2A5B2A08948B
S21401F4F0A108B108C108D10888E090E0A0E0B0E01A
S21401F500E80EF91E0A1F1B1FD7FEDDCFAA24BB2457
S21401F5106501A214B304C404D504E8F5A114B1042A
S21401F520C104D104E1F06620D1F41127092DF82C8D
S21401F530E72C0894E108F108010911098E2D0E94B3
S21401F540C3F8B02FAF2D9E2D882720E031E0AC0107
S21401F550BD01CE0101960E94CDF98823A9F1D401FF
S21401F560C3019070A070B0708E010F5F1F4F080F1F
S21401F570191FCE018F5F9E4F0E9498F9D8018C9378
S21401F5800894A11CB11CC11CD11C0894611C711CDF
S21401F590811C911CBECF1127092DF82CE72C662063
S21401F5A029F40894E108F10801091109B02FAF2DDB
S21401F5B09E2D882720E031E0AC01BD01CE010196E9
S21401F5C00E94CDF9882319F480E090E004C00E94DF
S21401F5D096F981E090E0CC5FDE4F0FB6F894DEBF7F
S21401F5E00FBECDBFDF91CF911F910F91FF90EF908E
S21401F5F0DF90CF90BF90AF909F908F907F906F904D
S21401F6005F904F903F902F9008959C01DC010E94DF
S21401F610B5FCCF010196EE5FFF4F68F4D901082EC5
S21401F6200E94BAFCD9011196892F9927082E0E94AB
S21401F630BAFCF999FECF0895ACEEBFE00E94B5FC86
S21401F64043E0EE0FFF1F4A95E1F799278770907008
S21401F650E82BF92BACEEBFE00E2E0E94BAFCADEE05
S21401F660BFE08F2F9927082E0E94BAFCF999FECF8A
S21401F6700895AEEFBFE00E94ADFC802D8460AEEF32
S21401F680BFE0082E0E94BAFCF999FECF0895EF92CA
S21401F690FF920F931F93A1EFBFE00E94ADFC802D58
S21401F6A08F3F11F08F5F01C081E0182FA0EFBFE000
S21401F6B00E94ADFC802D082F153008F461C08F3FE5
S21401F6C089F1A0EFBFE08FEF082E0E94BAFCF999EE
S21401F6D0FECFA4EFBFE00E94B5FCCF01AA27BB274F
S21401F6E08F5F9F4FA040B040A1F4AEEFBFE00E94F5
S21401F6F0ADFC802D80FD03C00E94FAF8FDCFA1EF7E
S21401F700BFE085E0082E0E94BAFCF999FECF0E9460
S21401F710C1F9A1EFBFE08FEF082E0E94BAFCF9995C
S21401F720FECF2EC0AEEFBFE00E94ADFC802D80FD67
S21401F73027C00E94FAF8A2EFBFE080E0082E0E94E0
S21401F740BAFCA3EFBFE0082E0E94BAFCF999FECFDF
S21401F75060E070E080E090E00E9404FA882321F4E3
S21401F7600E9439FB0E94C1F9A4EFBFE080E0082E99
S21401F7700E94BAFCA5EFBFE0082E0E94BAFC1FEF5C
S21401F780A1EFBFE0012E0E94BAFCF999FECF0F3F10
S21401F79041F1A2EFBFE00E94B5FC7F0100271127CF
S21401F7A0C801B7010E9404FA882321F40E9439FB9C
S21401F7B00E94C1F9A4EFBFE00E2C0E94BAFC25EF0F
S21401F7C03FE07727612F502F4F2DD901042E0E943D
S21401F7D0BAFCA0EFBFE08FEF082E0E94BAFCF999A1
S21401F7E0FECF0E94D4F8A1EFBFE08FEF082E0E9453
S21401F7F0BAFCF999FECF0C9400001F910F91FF906F
S21401F800EF900895CFEFD1E2DEBFCDBFF89484B775
S21401F81014BE88E10FB6F8948093600010926000E1
S21401F8200FBE0E94A3F88DEC99EF7C0100271127EB
S21401F8300E94D4F840E050E0BA01D801C701062E74
S21401F84004C0B695A795979587950A94D2F7982FF1
S21401F850DA01AA50B04F9D010E94ADFC802D891798
S21401F86021F0D901092E0E94BAFC4F5F5F4F685FF5
S21401F8707F4F4430510508F30E9447FB80E090E03B
S21401F8800C94C6FC8F929F92AF92BF92CF92DF925A
S21401F890EF92FF920F931F93CF93DF934C01EB01EF
S21401F8A0DA0183E0FA0160935B0080935700E895E4
S21401F8B007B606FE07C081E180935700E89507B6B4
S21401F8C006FCFACFEE24FF248701369527955901C9
S21401F8D0CC24DD24EA14FB040C051D0500F561E0CB
S21401F8E09D01AE01F701EE0DFF1DE80DF91D8081AA
S21401F8F091810C01F90140935B0060935700E895F4
S21401F90011240894E11CF11C011D111D2E5F3F4FAF
S21401F9104F4F5F4FEA14FB040C051D0518F385E0F5
S21401F920FD01C0935B0080935700E89507B606FE7D
S21401F93007C081E180935700E89507B606FCFACF29
S21401F940DF91CF911F910F91FF90EF90DF90CF90B5
S21401F950BF90AF909F908F900895F999FECFB2BD5A
S21401F960A1BDF89A119600B40895F7DFE02DF5DFF2
S21401F970F02D0895F999FECFB2BDA1BD00BC119638
S21201F9800FB6F894FA9AF99A0FBE0895FFCFC3
S80401F0000A
