S01800006275696C642F6D6963617A2F6D61696E2E73726563E5
S11300000C9446010C9463010C9463010C946301F9
S11300100C9463010C940E390C943C390C947D318E
S11300200C949C390C94CB340C9463010C946301B0
S11300300C9463010C9463010C9463010C940633D7
S11300400C9463010C9463010C9433350C94630198
S11300500C9435370C9423380C9463010C9463018D
S11300600C9463010C9463010C9463010C9463017C
S11300700C9463010C9463010C9463010C9463016C
S11300800C9463010C9463010C946301000021102F
S1130090422063308440A550C660E77008812991EE
S11300A04AA16BB18CC1ADD1CEE1EFF13112100296
S11300B073325222B5529442F772D662399318833E
S11300C07BB35AA3BDD39CC3FFF3DEE36224433462
S11300D020040114E664C774A44485546AA54BB58E
S11300E028850995EEE5CFF5ACC58DD55336722636
S11300F011163006D776F6669556B4465BB77AA7DE
S113010019973887DFF7FEE79DD7BCC7C448E55881
S11301108668A7784008611802282338CCC9EDD92D
S11301208EE9AFF9488969990AA92BB9F55AD44AD5
S1130130B77A966A711A500A333A122AFDDBDCCB7D
S1130140BFFB9EEB799B588B3BBB1AABA66C877CA1
S1130150E44CC55C222C033C600C411CAEED8FFDCD
S1130160ECCDCDDD2AAD0BBD688D499D977EB66E75
S1130170D55EF44E133E322E511E700E9FFFBEEF1D
S1130180DDDFFCCF1BBF3AAF599F788F8891A981DF
S1130190CAB1EBA10CD12DC14EF16FE18010A100C9
S11301A0C230E3200450254046706760B9839893B9
S11301B0FBA3DAB33DC31CD37FE35EF3B102901219
S11301C0F322D2323542145277625672EAB5CBA585
S11301D0A89589856EF54FE52CD50DC5E234C32469
S11301E0A01481046674476424540544DBA7FAB759
S11301F09987B8975FE77EF71DC73CD7D326F236B9
S11302009106B01657667676154634564CD96DC9A4
S11302100EF92FE9C899E9898AB9ABA94458654808
S113022006782768C018E1088238A3287DCB5CDBF8
S11302303FEB1EFBF98BD89BBBAB9ABB754A545A58
S1130240376A167AF10AD01AB32A923A2EFD0FEDC4
S11302506CDD4DCDAABD8BADE89DC98D267C076CA8
S1130260645C454CA23C832CE01CC10C1FEF3EFF98
S11302705DCF7CDF9BAFBABFD98FF89F176E367EF8
S1130280554E745E932EB23ED10EF01E11241FBE45
S1130290CFEFD0E1DEBFCDBF11E0A0E0B1E0E4E0FC
S11302A0FFED00E00BBF02C007900D92A232B10730
S11302B0D9F71DE0A2E2B1E001C01D92A33DB10750
S11302C0E1F70C942E210C9400008FB7F894992731
S11302D008958FBF08958FB7F894E82FFF271092E1
S11302E0780710926E0780911F01909120016FEFA3
S11302F070E00E94316F880F991F880F991F9C012D
S1130300442755278091120190911301A091140163
S1130310B0911501820F931FA41FB51F8093AD02E6
S11303209093AE02A093AF02B093B002EFBF0895D2
S1130330EAE4F6E0128216821582379687E0E33209
S1130340F807C1F3BCF310922C07109279011092B4
S1130350780110927C0D10927B0D81E08093210D29
S113036081E090E008951092700D1092710D10923A
S1130370720D1092730D10924F078FEF80937D0DC5
S11303808093780210921A0483E08093500796EECB
S1130390909350088FB7F894282F332787B78E7F10
S11303A087BF87B78D7F87BF80B7886080BF8BE0AA
S11303B083BF12BE91BF87B7826087BF2FBF81E022
S11303C090E00895909A919A889A899A1092850D4E
S11303D01092FA0B8FB7F894282F332783E6809373
S11303E0690D109245072FBF81E090E008958FB703
S11303F0F894282F8091B102882391F480E090E052
S1130400E0E4FCE0819301968C309105DCF38EE10D
S113041080934A0C8FE180934B0C81E08093B1026E
S11304202FBF08951F93CF93C82F162F8C3090F4AD
S11304308A3081F08B3071F00E94F7018FB7F89405
S11304409927EC2FFF27E05CF34F10838FBF81E0E7
S113045090E002C080E090E0CF911F9108958FB7A3
S1130460F894282F33271092670410926604109290
S11304704C0710924B071092840D1092830D10922A
S1130480DD051092DC058DE791E0A0E0B0E08093FB
S1130490770D9093780DA093790DB0937A0D2FBFBB
S11304A00E94F7018FB7F894282F33278EE086B97E
S11304B017B82FBF81E090E008958FB7F894682FA4
S11304C080E090E04FE951E09C01F901E80FF91F49
S11304D0E251F44F558344831382128211820196B0
S11304E02B5F3F4F495B5F4F8230910574F310924D
S11304F0170D109233071092320710929502109242
S1130500940210928E0110928D0110927702109233
S1130510760210924C0C1092740710921A0D1092DD
S1130520B7021092B6021092600410925F04809198
S1130530F20B9091F30B9093320C8093310C6FBFBC
S113054008958FB7F894482F552720911F013091B3
S1130550200181E597E3289FB001299F700D389F02
S1130560700D1124CB018F5A984C9093060C8093F4
S1130570050C90937F0D80937E0D85E89FE0289F66
S1130580B001299F700D389F700D1124CB018B573A
S1130590904F9093A9028093A8024FBF81E090E00E
S11305A008958FB7F894DC98D49ADC9824EF31E05E
S11305B00000000000000000000000000000000037
S11305C021503040121613069CF390E0DC9AD49824
S11305D0CC9B14C09F5F2EE130E0000000000000BF
S11305E000000000000000000000215030401216FE
S11305F013069CF3CC9B02C09E3160F3CC9914C0CB
S11306009E3190F49F5F2EE130E000000000000076
S113061000000000000000000000215030401216CD
S113062013069CF3CC9BECCF9E3108F083C024EFDF
S113063031E00000000000000000000000000000A5
S1130640000021503040121613069CF343E390E05F
S1130650D49ADC98000000000000000000000000B4
S11306600000000040FF02C0DC9AD49826E430E089
S11306700000000000000000000000000000000076
S113068021503040121613069CF3DC9AD49822E0D1
S113069030E0000000000000000000000000000046
S11306A0000021503040121613069CF346959F5FBC
S11306B0983008F4CDCF90E0E0917D02F0917E0275
S11306C0E90FF11D40E0542F4695D49ADC980000C0
S11306D00000000000000000000000000000DC9AA0
S11306E0D4982AE030E00000000000000000000080
S11306F000000000000021503040121613069CF345
S1130700CC99406822E330E00000000000000000C3
S113071000000000000000002150304012161306B3
S11307209CF35F5F583008F4CFCF40839F5F9830CD
S113073008F4C2CF8FBF10929602DC980895BC01D2
S11307408FB7F894482F552720914607E22FFF27AB
S1130750EE0FFF1FE45EFB4F80819181892B51F4E2
S11307602F5F2F7120934607718360834FBF81E011
S113077090E008954FBF80E090E0089587B7282F58
S113078033272C7F2115310519F080E090E020C03B
S11307906F9904C080919A00887D11F0C90118C036
S11307A0379B03C088E090E013C087B79927837014
S11307B09070892B59F081B792B7891B803118F456
S11307C08CE190E005C088E190E002C080E190E017
S11307D0382F25B7237E8C3111F0883149F480B746
S11307E0992787709070892B11F00000F8CF237E31
S11307F0232B25BF85B7806285BF08959C01D9014D
S1130800FB01415050408FEF4F3F580719F0819141
S11308108D93F7CFC90108958AB78F7E8ABF8AB7AF
S11308208F7D8ABF89B7806489BF81E090E0089595
S11308300895982F8FB7F894282FC0989FB9779B65
S1130840FECF8FB12FBFC09A99270895982F8FB7E5
S1130850F894382F10924E0CC0989FB9779BFECF16
S11308602FB19F3040F0872F99278FB9779BFECF08
S11308706FB9779BFECF81E080934E0C3FBFC09A47
S1130880822F992708950F931F93282F833089F07F
S1130890873079F08B3069F08F3059F0833149F02B
S11308A0873139F08B3129F08F3119F080E090E0F5
S11308B016C08FB7F894082F112780911C089091C7
S11308C01D08807E3327822B932B90931D088093E1
S11308D01C08BC0185E10E9426040FBF99271F91C3
S11308E00F91089595E0899F90011124225D3E4F58
S11308F0809122089091230880709C7F822B932BF7
S11309009093230880932208BC0188E10E94260466
S113091081E090E0089580911408909115088F7EED
S11309209093150880931408BC0181E10E94260469
S1130930992708951F930E94B3010E945D028FB707
S1130940F894992710926D078FBF8FB7F894282FCA
S113095033271092690410926C071092860581E087
S113096090E08093620482E29DE090934E0780932E
S11309704D071092220D81E490E0909371078093CB
S1130980700710920F042FBFDD9A88E592E00000F3
S1130990019718161906DCF311E010934E0CBB985E
S11309A0BA9AB99AD69AD59AB89A16988E988C9873
S11309B0BF988FB7F8949927B99ABB98BA9A709A46
S11309C06C9A6B986A98699868986E9A8FBF80E061
S11309D098EF909313088093120882EE92E090931C
S11309E015088093140880E095E09093170880938D
S11309F0160880E890EE90931908809318088FE009
S1130A0097EA90931B0880931A0880911B019927F9
S1130A10806E906690931D0880931C0885EE92E189
S1130A2090931F0880931E0886E59AE0909321080E
S1130A308093200890911A0185E0989FC0011124A9
S1130A40825D9E4F9064909323088093220884ECE7
S1130A5091E090932508809324081092270810921F
S1130A602608109229081092280884E692E09093B0
S1130A702B0880932A0810922D0810922C080E94AB
S1130A80B3010E94A10280911F01909120019093D3
S1130A90190D8093180D109286050E948B04809185
S1130AA0140890911508977F909315088093140863
S1130AB0BC0181E10E9426040E948B04109362040D
S1130AC01092510810929102109290021092180400
S1130AD01092170410922B0710938D0281E090E07E
S1130AE01F9108959FB7F89410924E0CC09880649B
S1130AF08FB9779BFECF8FB11FB8779BFECF8FB195
S1130B00482F55271FB8779BFECF542F44278FB10A
S1130B10282F3327C09A81E080934E0C9FBFCA01CF
S1130B20822B932B08950F931F93CF93DF93582F0A
S1130B30E90101E0483318F020E030E044C0211519
S1130B40310509F440C08FB7F894182FA0917801AB
S1130B50B0917901CD0101968F71907020917B0D38
S1130B6030917C0D8217930711F400E029C0FD0138
S1130B7083E0EE0FFF1F8A95E1F7EA1BFB0BE65BB0
S1130B80F94F7183608342835383D683C583148270
S1130B90CC5BDF4F188280917801909179010196A6
S1130BA08F71907090937901809378018091210DD9
S1130BB0882331F01092210D86E893E20E949F036E
S1130BC01FBF202F3327C901DF91CF911F910F91B0
S1130BD008958FB7F894482F55272091050C30912C
S1130BE0060C832F881F8827881F220F331F882312
S1130BF021F08BE090E1282739272F5F3F4F309376
S1130C00060C2093050C8091A8029091A9024FBF75
S1130C10822793270895982F40E08FB7F894582F90
S1130C204093B8029093240C70935E0460935D0427
S1130C30C0988EE38FB9779BFECF2FB140E090919F
S1130C40240C491770F4E0915D04F0915E048191E5
S1130C508FB9F0935E04E0935D04779BFECF4F5F02
S1130C60F0CF81E08093B8025FBFC09A222311F4D1
S1130C702093240C8091240C99270895CF93DF931B
S1130C808C3008F03EC041E050E060E070E004C009
S1130C90440F551F661F771F8A95D2F7C091700DB8
S1130CA0D091710DE091720DF091730DCE01DF01C1
S1130CB084239523A623B7230097A105B10509F141
S1130CC08FB7F894282F3327DB01CA0180959095BC
S1130CD0A095B0958C239D23AE23BF238093700DE4
S1130CE09093710DA093720DB093730D2FBF009765
S1130CF0A105B10519F481E080934F0781E090E0EC
S1130D0002C080E090E0DF91CF9108950F931F938C
S1130D10482F5527FA01E95CF34F808199279C01FC
S1130D202074307086FF13C001E010E0980102C007
S1130D30220F331F4A95E2F780917A02822B809327
S1130D407A0286E091E30E949F03C80101C0C901B1
S1130D501F910F9108950F931F93482F5527FA0160
S1130D60E95CF34F808199279C012074307086FFE1
S1130D7013C001E010E0980102C0220F331F4A950E
S1130D80E2F780916F07822B80936F078EE097E2E2
S1130D900E949F03C80101C0C9011F910F910895CA
S1130DA00F931F93482F5527FA01E95CF34F808175
S1130DB099279C012074307086FF13C001E010E075
S1130DC0980102C0220F331F4A95E2F780913F0C2D
S1130DD0822B80933F0C86EA90E30E949F03C80114
S1130DE001C0C9011F910F9108958091850D882339
S1130DF019F080E090E0089583E08093850D80EB06
S1130E009CE20E949F0381E090E00895382F8FB701
S1130E10F894E82FFF2790E08091690D833681F4E0
S1130E2030934D0C50937B0140937A019093450786
S1130E3060934A07209372078AE08093690D91E0DA
S1130E40EFBF992319F480E090E008950E94F5061D
S1130E50882319F081E090E008958FB7F894282F43
S1130E60332783E68093690D2FBF80E090E00895D7
S1130E708091850D882319F080E090E0089584E046
S1130E808093850D80EB9CE20E949F0381E090E0BB
S1130E900895982F8091850D882319F080E090E0C3
S1130EA0089581E08093850D992319F081E1809361
S1130EB0850D80EB9CE20E949F0381E090E0089501
S1130EC030E0432F532FE5E3F7E02DE0819199279C
S1130ED086FF06C083FD41E084FD31E085FD51E0DD
S1130EE0215027FFF3CF442309F4AA98332309F4AC
S1130EF0AB98552309F4AD98442329F4332319F40A
S1130F00552309F4A99A08950F931F93CF9320E0D2
S1130F1030E04FEF5FEF822F2A3180F4992787FD6D
S1130F209095FC01EE0FFF1FEE0FFF1FE80FF91F56
S1130F30E80FF91FE758F84F558344832F5F3F4F5D
S1130F402931310544F389B78F7D89BF8FB7F89470
S1130F50992710926B071092610410920E048FBFB0
S1130F6080911E0D813041F48FB7F8949927109227
S1130F701104109210048FBF8FB7F894082F112713
S1130F808DEA99E20E949F03C1E0C0930E040FBF53
S1130F90AE9A0E94600780911E0D882311F4C093BD
S1130FA01E0D81E090E0CF911F910F910895282F9D
S1130FB0862F99278230910509F4E1C08330910589
S1130FC034F4009761F0019709F49DC0F0C08330B8
S1130FD0910509F4C0C0049709F44BC0E8C0822FFE
S1130FE0992781309105E9F0823091051CF4892B11
S1130FF021F0DDC0029749F1DAC089E392E09093D1
S1131000900580938F0550934402409343028FB719
S1131010F894282F332780916E0D90916F0D816085
S1131020C1C089E392E09093900580938F0550931B
S11310304602409345028FB7F894282F33278091B6
S11310406E0D90916F0D8260ADC089E392E0909334
S1131050900580938F0550934802409347028FB7C1
S1131060F894282F332780916E0D90916F0D846032
S113107099C0822F992781309105E9F0823091053A
S11310801CF4892B21F093C0029749F190C08FB7CB
S1131090F894282F332789E392E090939005809366
S11310A08F0550934A024093490280916E0D9091AE
S11310B06F0D886077C08FB7F894282F332789E3A2
S11310C092E09093900580938F0550934C02409347
S11310D04B0280916E0D90916F0D806163C08FB74C
S11310E0F894282F332789E392E090939005809316
S11310F08F0550934E0240934D0280916E0D909156
S11311006F0D80624FC080916E01882309F44FC037
S11311108FB7F894282F332710926E0189E392E059
S11311209093900580938F0550933E0240933D0227
S113113080916E0D90916F0D806490936F0D8093EC
S11311406E0D2FBF80910601882389F58DE399E206
S11311500E949F032CC08FB7F894282F332789E36C
S113116092E09093900580938F05509340024093B2
S11311703F0280916E0D90916F0D806813C08FB700
S1131180F894282F332789E392E090939005809375
S11311908F05509342024093410280916E0D9091CD
S11311A06F0D916090936F0D80936E0D2FBF8091A2
S11311B06E078823C9F420916E0D30916F0D8091D4
S11311C01F0D9091200D2817390771F48FB7F894EB
S11311D0992710926F0D10926E0D8FBF0E94840795
S11311E08DE399E20E949F0381E090E00895282F07
S11311F080912801882381F08FB7F8949927109261
S113120028018FBF222341F080917C0181508330DB
S113121018F485E080937C0181E090E00895982F94
S11312208091850D882319F080E090E0089582E094
S11312308093850D9093FA0B80EB9CE20E949F03B0
S113124081E090E00895809161048350823008F039
S113125046C08FB7F894992721E0209361048FBF8B
S11312608091800D99278630910561F18730910531
S113127094F48330910501F18430910534F4813084
S11312809105B1F00297B1F011C084309105B1F02D
S11312900597B1F00BC08B309105C1F08B309105EF
S11312A09CF08C309105A9F00D97B1F088E015C041
S11312B08CE013C089E011C08DE00FC08AE00DC03E
S11312C08EE00BC08BE009C08FE007C010927F0254
S11312D006C020937F0203C082E080937F02809146
S11312E07F028295807F8F6080937F028FB7F8940E
S11312F0992731E0309326018FBF23E04FE752E076
S1131300632F8AE40E940607282F3327222319F526
S11313108FB7F8949927209361048FBF8FB7F894FF
S11313209927209326018FBF84E690E000000000F7
S113133000000000000000000000000001971816E3
S11313401906A4F38BEA9AE20E949F030E946007A5
S113135080E090E0089581E090E00895582F8FB7E1
S1131360F894282F332790E08091690D833661F437
S113137050934D0C9093450760934A07409372072E
S113138084E18093690D91E02FBF992319F480E0E3
S113139090E008950E94F506882319F081E090E01A
S11313A008958FB7F894282F332783E68093690D27
S11313B02FBF80E090E00895899885E090E00000D8
S11313C00000000000000000000000000000019781
S11313D018161906A4F3909A85E090E00000000026
S11313E00000000000000000000000000197181633
S11313F01906A4F380B399279695879581709098E0
S1131400992787FD9095089585E090E000000000FD
S11314100000000000000000000000000197181602
S11314201906A4F3909A85E090E000000000000003
S113143000000000000000000000019718161906C3
S1131440A4F3909808958FB7F894282F3327D89A47
S11314508091330C8B7F8093330C2FBF81E090E01D
S113146008958FB7F894282F3327DA9A8091330C94
S11314708E7F8093330C2FBF81E090E008958FB767
S1131480F894282F3327D99A8091330C8D7F809339
S1131490330C2FBF81E090E008958FB7F894282F84
S11314A03327DA988091330C81608093330C2FBFFB
S11314B081E090E008958FB7F894282F3327D898C7
S11314C08091330C84608093330C2FBF81E090E0D3
S11314D008958FB7F894282F3327D9988091330C27
S11314E082608093330C2FBF81E090E008951092C6
S11314F0B80270937C0260937B028093810DC09844
S11315008FE78FB9779BFECF8FB190E00CC01FB8E7
S1131510779BFECFE0917B02F0917C02E90FF11DF5
S11315208FB180839F5FB79B04C08091810D981712
S113153070F39093810D81E08093B802C09A892F53
S11315409927089580910701882329F48EEB93E06D
S11315500E949F0306C085B7837E85BF85B78062DE
S113156085BF80E090E00895EF92FF920F931F9360
S1131570CF93DF93962F79018A018C3050F4623037
S113158044F4662349F423E0E216F104010511054D
S113159018F480E090E051C0682F7727FB01A3E0A6
S11315A0EE0FFF1FAA95E1F7E60FF71FE252FA4F7D
S11315B0E182F2820383148390838FB7F894C82F57
S11315C0DD2782B7E80EF11C011D111DE582F682AC
S11315D00783108721E030E040E050E004C0220F90
S11315E0331F441F551F6A95D2F78091700D909157
S11315F0710DA091720DB091730D822B932BA42BBE
S1131600B52B8093700D9093710DA093720DB093D0
S1131610730D809150089927AA27BB27E816F9066D
S11316200A071B0738F4E0925008E1BE10924F07F6
S11316300E94A20ACFBF81E090E0DF91CF911F9179
S11316400F91FF90EF900895282F80912201882315
S113165009F441C08FB7F8949927109222018FBFE3
S113166080918E05813021F484E080938E0533C00F
S1131670823089F584E080938E058091240188234B
S113168051F18FB7F8949927109224018FBF222328
S113169071F48FB7F8949927209361048FBFAE9AA1
S11316A08BEA9AE20E949F030E94600714C0809113
S11316B0800DE82FFF27EB5CF84F808187FF09C07E
S11316C024E630E040E050E061E08BE00E94B40AA0
S11316D002C00E94230981E090E00895882389F0E4
S11316E080E00E943E068091AD029091AE02A091EE
S11316F0AF02B091B0029C01AD0160E0862F0E9460
S1131700B40A81E090E00895AC988FB7F8949927D3
S1131710109252088FBF89B7806289BF81E090E040
S113172008950F931F93982F8E3018F080E090E067
S113173026C08FB7F894482F552701E010E0980190
S113174002C0220F331F9A95E2F780911004909102
S11317501104822B932B9093110480931004809195
S1131760AB029091AC02822B932B9093AC028093AA
S1131770AB024FBF8BEA9AE20E949F03C8011F91FC
S11317800F9108958F929F92AF92BF92CF92DF9262
S1131790EF92FF920F931F93CF93DF9381E0809397
S11317A04F078FB7F8949927C0904307D090440708
S11317B010924407109243078FBF8091700D90914F
S11317C0710DA091720DB091730D0097A105B10533
S11317D009F495C09924CEEDD5E0AA24BB2411E0E8
S11317E0E12EF12C012D112D0A2C04C0EE0CFF1C4E
S11317F0001F111F0A94D2F78091700D9091710D02
S1131800A091720DB091730D8E219F21A023B1235D
S11318100097A105B10509F469C09601442755272D
S11318208D819E81AF81B885821B930BA40BB50B70
S11318308D839E83AF83B8870397A105B1050CF010
S113184055C089E89EE20E949F03882309F445C09D
S11318508881882389F48D819E81AF81B88529810F
S11318603A814B815C81820F931FA41FB51F8D8326
S11318709E83AF83B8871AC0A8019701209530953D
S1131880409550958091700D9091710DA091720DBD
S1131890B091730D82239323A423B5238093700DF9
S11318A09093710DA093720DB093730D80917D0D83
S11318B08B3019F48FEF80937D0D90917D0D9F5F98
S11318C090937D0D80911A048F5F80931A04E92F01
S11318D0FF27E058FD4F908209C080915008992756
S11318E0AA27BB278D839E83AF83B88793940894DC
S11318F0A11CB11C29968BE0891508F070CF8FB715
S1131900F8949927C0904307D09044078FBFC1141F
S1131910D10409F050C076EEE090700DF090710D96
S11319200091720D1091730DE114F104010511057C
S1131930B9F1B1E08B2E912CA12CB12CEEEDF5E098
S1131940E6016BE0D501C4010C2E04C0880F991F79
S1131950AA1FBB1F0A94D2F78E219F21A023B12373
S11319600097A105B10571F0272F33274427552788
S113197085819681A781B08582179307A407B5074F
S11319800CF4758161502196399667FFDBCF8FB7D0
S1131990F894992762B76D5F761728F4762F03C001
S11319A08FB7F89499277093500871BF10924F071E
S11319B08FBF0E94A20ADF91CF911F910F91FF90D8
S11319C0EF90DF90CF90BF90AF909F908F9008954D
S11319D0A6E9B0E020E030E0A90168E1F901E40FF4
S11319E0F51FE758F84F848195818F5F9F4F31F041
S11319F0828193818A179B070CF4DC0161504F5F4D
S1131A005F4F2B5F3F4F67FFE9CF20E030E0A90134
S1131A1068E1F901E40FF51FE758F84F84819581D7
S1131A208F5F9F4F31F0828193818A1B9B0B93833D
S1131A30828361504F5F5F4F2B5F3F4F67FFE9CF5A
S1131A4084E690E0A89F9001A99F300DB89F300DC7
S1131A501124D9019D01442737FD4095542F61E09D
S1131A608AE00E94B40A0895E82FFF27E95CF34F47
S1131A706083862F992741E050E09C012427352775
S1131A8096958795842795272823392320FF03C01B
S1131A90862F8160808367FF0BC080912901882392
S1131AA039F485E080937C0186EA94E30E949F03E5
S1131AB080E090E00895EF92FF920F931F93CF93ED
S1131AC0E82EB62FC22FA0E020E030E0B901F901E2
S1131AD0E60FF71FE758F84F848195818F5F9F4F7A
S1131AE091F0AF5F6F5F7F4F2B5F3F4FA9317CF366
S1131AF08FEF9FEFF82E082F112707FD10958FEF1A
S1131B00F81619F4DAC0CB01F5CFF801EE0FFF1F78
S1131B10EE0FFF1FE00FF11FE00FF11FE758F84F22
S1131B20E082B1831382128255834483B43049F531
S1131B308E2D992782309105B9F0833091052CF4CC
S1131B40009761F0019769F01CC08430910591F011
S1131B508430910564F0059781F013C06C2F80E008
S1131B600EC06C2F81E00BC06C2F82E008C06C2F7C
S1131B7083E005C06C2F8B2F02C06C2F85E00E9480
S1131B80340DF801EE0FFF1FEE0FFF1FE00FF11FE2
S1131B90E00FF11FE758F84F81818530D1F48FB7FA
S1131BA0F894682F7727C0936A078C2F992741E010
S1131BB050E09C01242735279695879584279527FF
S1131BC02823392320FF04C08C2F816080936A0767
S1131BD06FBFF801EE0FFF1FEE0FFF1FE00FF11FA5
S1131BE0E00FF11FE758F84F8181882309F065C0A1
S1131BF08F2D9927FC01EE0FFF1FEE0FFF1FE80F3B
S1131C00F91FE80FF91FE758F84F808199278630AC
S1131C10910509F43BC0873091058CF4823091051D
S1131C2049F1833091052CF40097F1F00197F9F014
S1131C3044C08430910521F105972CF51EC08A30EB
S1131C40910581F18B30910534F48830910521F1AF
S1131C5009972CF51EC08C30910551F18C309105FB
S1131C6024F10D9741F129C0C093350726C0C093D4
S1131C70360723C0C093370720C0C09338071DC060
S1131C80C09339071AC0C0933A0717C0C0933B07E3
S1131C9014C0C0933C0711C0C0933D070EC0C0934D
S1131CA03E070BC0C0933F0708C0C093400705C060
S1131CB0C093410702C0C0934207C801CF911F914E
S1131CC00F91FF90EF900895982F683018F080E0FE
S1131CD090E0089568608FB7F894282F332715BCD7
S1131CE087B78F7787BF87B78F7B87BF60938B0555
S1131CF09093310714BC93BD86B7806886BF87B7BD
S1131D00806887BF65BD2FBF81E090E00895CF93C1
S1131D10DF93EC01DB018FB7F894282F3327A093CE
S1131D20B202B093B302C093B402D093B50281E07F
S1131D3080936D0D2FBFAF3FB105C105D10521F0D3
S1131D4018F064E08FEF02C064E08A2F0E94640EF2
S1131D500E94A20A81E090E0DF91CF91089584303F
S1131D6018F48A5F99270895843019F480E090E08C
S1131D7008958B5F99270895482F8FB7F894282FDB
S1131D80332790916D0781E080936D072FBF9923CE
S1131D9019F080E090E008958FB7F89499274CB932
S1131DA05E9A8FBF81E090E00895CF93C1E020E078
S1131DB08FB7F894382F8091170D882391F580916F
S1131DC0820D992781FF08C087E797E09093640408
S1131DD08093630480E41AC082FF0FC0E09176020E
S1131DE0F0917702F0936404E093630482E48093B7
S1131DF07902808199270A960DC083FF12C08EE86C
S1131E0092E090936404809363048FEF809379024B
S1131E1081E090E090939502809394022C2FC093DC
S1131E20170D3FBF222309F18FB7F894282F3327CA
S1131E3010928E0110928D0186E090E0909333070A
S1131E40809332072FBF8EE70E94BC0EC82F8130CB
S1131E5061F08FB7F894282F332788E08093170D0B
S1131E602FBF8AE494E20E949F038C2F9927CF917D
S1131E70089520912E0831E08FB7F8949091820D47
S1131E8091FD06C092609093820D2093770701C064
S1131E9030E08FBF313011F40E94D50E08958FB712
S1131EA0F894282F33278091820D88608093820DC7
S1131EB02FBF0E94D50E0895982F8D57823078F445
S1131EC08FB7F894282F33278091170D80930C0C2B
S1131ED083E08093170D90936A0D2FBF9DE7892FA0
S1131EE00E94BC0E9927089580918C0590918D05D0
S1131EF0AC0161E080E00E94D7070895982F8FB766
S1131F00F894282F3327E0E4FCE0E90FF11D8081E9
S1131F108F7187B92FBF379A369A81E090E0089580
S1131F20CF93DF93782F41E050E061E0C82FDD27A5
S1131F300C2E02C0440F551F0A94E2F72091DC05D1
S1131F403091DD05CA0182239323892B11F060E0CF
S1131F5014C0CA01822B932B9093DD058093DC057A
S1131F60232B59F4872F0E947E0F9927682F8823EB
S1131F7021F0D0936704C0936604862F9927DF91DC
S1131F80CF9108950F931F938FB7F894082F1127BB
S1131F908AE00E94900F0FBF1F910F9108950F9335
S1131FA01F93982F8D3018F080E090E009C08FB710
S1131FB0F894082F1127892F0E94900F0FBF99279B
S1131FC01F910F91089540E050E027E0A89A000087
S1131FD00000000081B1881F8827881F9927482B9B
S1131FE0592B440F551FA898215027FFEFCF179A5C
S1131FF01F98000000000000A89A000000000000E4
S1132000A898179820E0A89A00000000000081B169
S1132010881F8827881F9927482B592B273011F0B0
S1132020440F551FA8982F5F28306CF3179A1F98F8
S1132030000000000000A89A000000000000A8981A
S1132040179820E0A89A00000000000081B1A89829
S11320502F5F2830BCF3179A1F9A0000000000007D
S1132060A89A000000000000A89880911D0D8130FE
S113207069F462E080E00E94D7078091930281FFB7
S113208015C0109293028CEC93E30EC0823071F46D
S113209063E080E00E94D7078091930280FF06C02E
S11320A0109293028EE593E30E949F0310921D0DFC
S11320B008958F3070F49927FC0144E0EE0FFF1F60
S11320C04A95E1F7E80FF91FE80FF91FE754FD4FB0
S11320D0668308958F3078F49927FC0154E0EE0F5D
S11320E0FF1F5A95E1F7E80FF91FE80FF91FE754AE
S11320F0FD4F75836483089580931A010E947204CE
S11321000895E82FFF27EE0FFF1FE956FD4F80814A
S1132110918108958FE090E0089587E390E0089519
S11321208F3070F49927FC0174E0EE0FFF1F7A954D
S1132130E1F7E80FF91FE80FF91FE754FD4F658732
S113214008958F3078F49927FC01A4E0EE0FFF1F67
S1132150AA95E1F7E80FF91FE80FF91FE754FD4FBF
S1132160728761870895823350F4E82FFF27EE0FBA
S1132170FF1FEE0FFF1FE15BF34F7383628308952C
S113218080911A01992708958F3078F49927FC01DA
S113219024E0EE0FFF1F2A95E1F7E80FF91FE80F7F
S11321A0F91FE754FD4F7487638708958F3078F4DF
S11321B09927FC0134E0EE0FFF1F3A95E1F7E80F91
S11321C0F91FE80FF91FE754FD4F708767830895DF
S11321D081E090E0089580911001992708958093FB
S11321E01B010E944304089592E1899FC0011124B8
S11321F087549D4F0895823350F4E82FFF27EE0F44
S1132200FF1FEE0FFF1FE15BF34F7183608308959F
S113221097E4899FC00111248D5A974F08958091A6
S11322201B01992708958F3070F49927FC0154E01D
S1132230EE0FFF1F5A95E1F7E80FF91FE80FF91F9A
S1132240E754FD4F668708958F3070F49927FC0199
S113225074E0EE0FFF1F7A95E1F7E80FF91FE80F1E
S1132260F91FE754FD4F608B0895883028F4E82F58
S1132270FF27E550F44F608308958F5B9F4F0895C7
S113228080910C0190910D01A0910E01B0910F016C
S1132290BC01CD01089588E090E008959927880F46
S11322A0991F880F991F815B934F089580E090E0F8
S11322B0089582E390E008958F3070F49927FC012B
S11322C0A4E0EE0FFF1FAA95E1F7E80FF91FE80F4E
S11322D0F91FE754FD4F678708958F3070F49927ED
S11322E0FC01B4E0EE0FFF1FBA95E1F7E80FF91F08
S11322F0E80FF91FE754FD4F618B089583E090E0E8
S11323000895FC01EC5BFF4F8081992708958F307D
S113231078F49927FC0124E0EE0FFF1F2A95E1F7DA
S1132320E80FF91FE80FF91FE754FD4F7383628329
S11323300895883038F4E82FFF27E550F44F808162
S1132340992702C080E090E0992708958FE090E0FB
S113235008958F3078F49927FC0134E0EE0FFF1FC5
S11323603A95E1F7E80FF91FE80FF91FE754FD4F1D
S1132370718360830895883040F4E82FFF27EE0FBF
S1132380FF1FE956FD4F71836083089588E090E054
S11323900895E82F9A01AB016E2F84E00E94B40ADD
S11323A09927089584E00E943E069927089581E0C4
S11323B090E0089581E090E008950E94E905089571
S11323C00E94A1029927089581E090E0089581E098
S11323D090E0089581E090E008950E94154281E024
S11323E090E00895E82F9A01AB016E2F83E00E94DC
S11323F0B40A9927089583E00E943E069927089518
S113240099278033910561F0C39751F48FB7F894FD
S11324109927709369076093680710926E078FBFBE
S113242081E090E008950E949A0499270895CF923C
S1132430DF92EF92FF920F931F93CF93DF93CDB769
S1132440DEB724970FB6F894DEBF0FBECDBF0E944F
S11324505D028091160190911701A0911801B0912D
S1132460190180302BE4920720E0A20720E0B20794
S113247061F181302BE4920720E0A20720E0B2074B
S113248070F4803C22E1920720E0A20720E0B2072A
S1132490A1F080589542A040B04099F029C0803006
S11324A021EE920720E0A20720E0B20791F08050CD
S11324B0924CA140B04089F01BC0109290008FEB69
S11324C00FC0109290008FE50BC0109290008FE225
S11324D007C0109290008FE003C01092900087E034
S11324E089B982E08BB986E08093950088ED8AB93A
S11324F041E050E08FB7F8949927209169048FBF89
S1132500222309F031C18FB7F894C82EE0914D070A
S1132510F0914E07208340936904DE980000000088
S1132520000000000000DE9A00000000000000002F
S11325300000122F022F842F0E94190484E690E0D9
S11325400000000000000000000000000000000087
S1132550019718161906A4F380E00E94190486FD59
S113256011E00F5F083C10F4112341F3112319F417
S113257000E010E002C001E010E0DD2480911208C8
S113258090911308BC0180E10E94260480911408F4
S113259090911508BC0181E10E94260481E10E940A
S11325A0720520911408309115088217930709F0D9
S11325B062C08091160890911708BC0182E10E94C4
S11325C026048091180890911908BC0183E10E94A7
S11325D0260480911A0890911B08BC0184E10E9492
S11325E0260480911C0890911D08BC0185E10E947D
S11325F0260480911E0890911F08BC0186E10E9468
S113260026048091200890912108BC0187E10E9452
S113261026048091220890912308BC0188E10E943D
S113262026048091240890912508BC0189E10E9428
S113263026048091260890912708BC018AE10E9413
S1132640260480912A0890912B08BC018CE10E94F9
S1132650260480912C0890912D08BC018DE10E94E4
S1132660260489E00E94190488E00E9419040023CA
S113267011F051E0D52E10E0DD2009F45DC0209169
S11326801F01309120013C832B8381E089831A83CD
S113269089819A81019711F4790102C0E32EF22E07
S11326A0FC82EB8290E080914E0C882319F480E048
S11326B090E03FC090934E0C8AE691E090938A0597
S11326C08093890582E080939202CE0103969093D1
S11326D0360C8093350CC0988091890580688FB939
S11326E0779BFECF8FB18091890590918A0596954D
S11326F08795807C8FB9779BFECF8FB190E0409116
S11327009202941770F42091350C3091360CF90133
S1132710E90FF11D80818FB9779BFECF9F5F9417DE
S1132720B0F381E080934E0C88E194E00E949F0313
S11327309927892B09F011E0112321F080911A01C6
S11327400E94720483E00E9419040E940C04809188
S11327500F04882329F060E870EE83E10E942604C8
S113276083E00E941904CFBE28EE33E040E050E03D
S113277060E081E00E94B40A182F0E94A20A10921D
S11327805108812F992724960FB6F894DEBF0FBE07
S1132790CDBFDF91CF911F910F91FF90EF90DF900C
S11327A0CF9008950E94171299270895E82F9A014F
S11327B0AB016E2F86E00E94B40A9927089586E043
S11327C00E943E069927089581E090E0089581E0F3
S11327D090E00895E82F9A01AB016E2F85E00E94E6
S11327E0B40A9927089585E00E943E069927089522
S11327F00E94930599270895E82F9A01AB016E2F43
S113280087E00E94B40A9927089587E00E943E0653
S113281099270895E82F9A01AB016E2F82E00E9458
S1132820B40A9927089582E00E943E0699270895E4
S1132830E82F9A01AB016E2F88E00E94B40A992711
S1132840089588E00E943E06992708950E94980101
S11328509927089581E090E0089581E090E008953B
S113286080912B079927089580938D0281E090E051
S1132870089580918D029927089580932B0781E014
S113288090E00895CB01089587E00E94CF0F992727
S113289008959927089581E090E00895992708956F
S11328A0DC0120E030E061506F3F79F08D91ECE87D
S11328B0F0E08327880FF11DE80FF11DC895322F32
S11328C0202D3196C8953025EECFC9010895CF93B8
S11328D0DF93FC01C081D1816230710568F0623000
S11328E0710569F0862F8250682FCF0102960E94ED
S11328F05014C817D90719F080E090E002C081E0B5
S113290090E0DF91CF910895CF93DF93EC01623093
S1132910710548F0862F8250682FCE0102960E94DE
S1132920501499838883DF91CF910895EF92FF9299
S11329300F931F93CF93DF93CDB7DEB722970FB6D4
S1132940F894DEBF0FBECDBF7B018C01DA0182E0BB
S1132950E81682E0F80680E0080780E0180709F42A
S11329606FC083E0E81682E0F80680E0080780E0A4
S1132970180730F589E0E81681E0F80680E00807DA
S113298080E01807E9F18AE0E81681E0F80680E0C3
S1132990080780E0180750F488E0E81681E0F8069C
S11329A080E0080780E0180749F186C081E0E81656
S11329B082E0F80680E0080780E0180799F17CC0FF
S11329C084E0E81682E0F80680E0080780E0180753
S11329D009F452C084E0E81682E0F80680E00807B3
S11329E080E01807D8F181E0E81685E0F80680E079
S11329F0080780E0180709F44DC05EC081E01DC1DE
S1132A002430310509F017C18D919D910D90BC9131
S1132A10A02D80936A0190936B01A0936C01B093F5
S1132A206D0106C12031310509F005C1EAE5F1E087
S1132A308D91819381E0E936F807D1F3CCF3F8C0A6
S1132A402031310509F0F7C0EAE4F1E08D9181937A
S1132A5081E0E935F807D1F3CCF3EAC02031310540
S1132A6009F0E9C0EAE3F1E08D91819381E0E93472
S1132A70F807D1F3CCF3DCC02031310509F0DBC019
S1132A80EAE2F1E08D91819381E0E933F807D1F333
S1132A90CCF3CEC02430310509F0CDC08D919D9189
S1132AA00D90BC91A02D8093AD029093AE02A093A3
S1132AB0AF02B093B002BCC0C9010197029708F0FD
S1132AC0BAC01A8219822330310510F022E030E0B6
S1132AD0A901BD01CE0101960E94FE0329813A811C
S1132AE081E0E81681E0F80680E0080780E0180736
S1132AF051F087E0E81681E0F80680E0080780E0FE
S1132B00180751F00FC08FB7F8949927309320011C
S1132B1020931F018FBF04C0309301012093000153
S1132B2081E001C080E0882309F07AC0298185E032
S1132B30E81681E0F80680E0080780E0180709F449
S1132B4059C086E0E81681E0F80680E0080780E0D6
S1132B501807E8F483E0E81681E0F80680E0080747
S1132B6080E0180709F440C084E0E81681E0F80624
S1132B7080E0080780E01807D0F582E0E81681E0DD
S1132B80F80680E0080780E0180739F146C084E0C1
S1132B90E81683E0F80680E0080780E0180781F172
S1132BA085E0E81683E0F80680E0080780E018076F
S1132BB050F486E0E81681E0F80680E0080780E03B
S1132BC01807D9F02AC085E0E81683E0F80680E00B
S1132BD0080780E01807D1F020C08FB7F894992730
S1132BE0209311018FBF17C02093050114C02093B7
S1132BF0040111C0209303010EC0209302010BC0F5
S1132C0020931B01822F0E94430405C020931A01C4
S1132C10822F0E94720481E001C080E0882359F071
S1132C20E0921304F0921404009315041093160414
S1132C3081E090E002C080E090E0992722960FB6F0
S1132C40F894DEBF0FBECDBFDF91CF911F910F91DE
S1132C50FF90EF900895EF92FF920F931F93CF93FD
S1132C60DF93CDB7DEB723970FB6F894DEBF0FBE60
S1132C70CDBF7B018C01FA0182E0E81682E0F80600
S1132C8080E0080780E0180709F471C083E0E816C3
S1132C9082E0F80680E0080780E0180738F589E04C
S1132CA0E81681E0F80680E0080780E0180709F4D8
S1132CB047C08AE0E81681E0F80680E0080780E073
S1132CC0180750F488E0E81681E0F80680E0080769
S1132CD080E0180749F181C081E0E81682E0F80637
S1132CE080E0080780E01807B9F177C084E0E816AF
S1132CF082E0F80680E0080780E0180709F44DC078
S1132D0084E0E81682E0F80680E0080780E018070F
S1132D10C8F181E0E81685E0F80680E0080780E065
S1132D20180709F44AC059C0452B39F048E050E06F
S1132D306FE278E0CF010E94FE0388E090E04EC18C
S1132D40452B09F447C02530310510F024E030E06C
S1132D50A9016AE671E03BC0452B61F121313105DF
S1132D6010F020E130E0A9016AE571E020C0452BB4
S1132D7009F12131310510F020E130E0A9016AE4C4
S1132D8071E015C0452BB1F02131310510F020E17F
S1132D9030E0A9016AE371E00AC0452B59F0213102
S1132DA0310510F020E130E0A9016AE271E0CF01C1
S1132DB00E94FE0380E190E011C1452B59F02530BB
S1132DC0310510F024E030E0A9016DEA72E0CF0192
S1132DD00E94FE0384E090E001C18FB7F894282F8D
S1132DE033278FEF90E0A0E0B0E08093200C909325
S1132DF0210CA093220CB093230C2FBF81E0E81682
S1132E0081E0F80680E0080780E0180751F087E0C9
S1132E10E81681E0F80680E0080780E0180731F042
S1132E200AC080911F019091200113C0809100017C
S1132E30909101010EC08FB7F89499271092200C3D
S1132E401092210C1092220C1092230C8FBF80E060
S1132E5090E09A8389838FB7F89499272091200C66
S1132E603091210C4091220C5091230C8FBF2115DD
S1132E7031054105510559F042E050E0BE016F5F54
S1132E807F4FCF010E94FE0382E090E0A7C08FB77E
S1132E90F894282F33278FEF90E0A0E0B0E08093E0
S1132EA0200C9093210CA093220CB093230C2FBFE1
S1132EB085E0E81681E0F80680E0080780E018075E
S1132EC009F454C086E0E81681E0F80680E00807BB
S1132ED080E01807E0F483E0E81681E0F80680E07B
S1132EE0080780E01807E1F184E0E81681E0F806BD
S1132EF080E0080780E01807B0F582E0E81681E07A
S1132F00F80680E0080780E0180739F13BC084E048
S1132F10E81683E0F80680E0080780E0180761F10E
S1132F2085E0E81683E0F80680E0080780E01807EB
S1132F3050F486E0E81681E0F80680E0080780E0B7
S1132F401807B9F01FC085E0E81683E0F80680E0B2
S1132F50080780E0180799F015C0809111011FC07F
S1132F60809105011CC08091040119C08091030166
S1132F7016C08091020113C080911B0110C0809182
S1132F801A010DC08FB7F89499271092200C109253
S1132F90210C1092220C1092230C8FBF80E08B83A3
S1132FA08FB7F89499272091200C3091210C4091EF
S1132FB0220C5091230C8FBF211531054105510579
S1132FC059F041E050E0BE016D5F7F4FCF010E9498
S1132FD0FE0381E090E002C080E090E023960FB60B
S1132FE0F894DEBF0FBECDBFDF91CF911F910F913B
S1132FF0FF90EF90089580912A07992784309105D6
S113300091F18530910534F48230910571F0039784
S1133010D9F08AC08630910509F441C08630910503
S11330206CF1079709F464C07FC080911F019091EF
S113303020019093160C8093150C81E08093110C61
S113304010922A0782E86AC081E08093110C809173
S11330501F01909120019093140C8093130C1092F3
S11330602A0783E85BC081E08093110C80911101F1
S11330708093130C10922A0784E850C081E0809357
S1133080110C21E030E043E15CE065E073E080E0B6
S113309090E00E942B1610922A0785E83FC081E039
S11330A08093110C85E090E0000000000000000017
S11330B00000000000000000019718161906A4F390
S11330C021E030E043E15CE064E073E080E090E024
S11330D00E942B1621E030E044E15CE065E073E0FF
S11330E080E090E00E942B1610922A0786E816C012
S11330F081E08093110C8091AD029091AE02A09179
S1133100AF02B091B0028093130C9093140CA0936F
S1133110150CB093160C10922A0787E880936C0D57
S113312081E493E20E949F0381E090E0089520915E
S1133130340C80912D07821700F180912D07909116
S11331402E07A0912F07B0913007807033274427B2
S11331505527822B932BA42BB52B20E030E04FE88E
S113316051E0BC01CD010E942B16892B31F48091D2
S1133170340C8F5F8093340CDACF0895CF92DF92B2
S1133180EF92FF920F931F93CF93DF936B017C0118
S1133190D901C801509375014093740110937701CC
S11331A00093760120E030E02817390788F4FA010B
S11331B0D901AC0DBD1D8191082E0E94766F2F5F41
S11331C03F4F80917601909177012817390780F35A
S11331D080914807909149078530910509F484C08E
S11331E08630910518F4049741F0EAC086309105C1
S11331F039F0079709F49FC0E3C086E090E012C05D
S113320080911904882311F40E949718809119045D
S1133210882331F42091340C80912D07821748F4CF
S113322087E090E090934907809348070E94EB1948
S1133230C7C080912D0790912E07A0912F07B091C0
S113324030078070332744275527822B932BA42BD8
S1133250B52B20E130E048E557E0BC01CD010E94E8
S11332602B16EC01C131D10510F080E190E0809380
S1133270570780912D0790912E07A0912F07B091A9
S11332803007892F9A2FAB2FBB2780935307909336
S11332905407A09355078091340C809356072796C2
S11332A0BE0181E597E00E94841420910A0C3091BC
S11332B00B0CC9018C0F9D1F90930B0C80930A0C6F
S11332C08091340C8F5F8093340C6901EE24FF24C9
S11332D0CE01AA27BB278C019D0141E557E0C70118
S11332E0B6010E94BE186CC09091340C80912D07D9
S11332F0C0912D07D0912E07E0912F07F091300750
S1133300891780F1C070892F9927AA27BB27C82B5A
S1133310D92BEA2BFB2B20E030E04FE851E0BE0133
S1133320CF010E942B16892BD9F58091340C8F5F25
S11333308093340CD9CF9091340C80912D07891748
S1133340E8F481E090E090934907809348078091E6
S11333502D0790912E07A0912F07B0913007AC0153
S1133360BD0108C081E090E090934907809348072D
S1133370AE01BF0181E00E94FB1722C080911904B5
S1133380882341F080E190E090930B0C80930A0C29
S11333901092190485E090E09093490780934807C0
S11333A080910A0C90910B0CAA27BB2707E110E02F
S11333B020E030E041E557E0BC01CD010E941C1A39
S11333C081E090E0DF91CF911F910F91FF90EF90FA
S11333D0DF90CF900895EF92FF920F931F9377E5BC
S11333E0E72E77E0F72E109257078FEF809353075D
S11333F080935407809355078093560767E070E0E5
S1133400C70106970E94841480910A0C90910B0CBA
S1133410AA27BB272AEF3FEFE20EF31E07E010E0D6
S113342020E030E0A701BC01CD010E94BE181F912D
S11334300F91FF90EF900895CF92DF92EF92FF9259
S11334400F931F93CF93DF936B017C01D901C801C4
S113345050937101409370011093730100937201B2
S113346020E030E02817390788F4FA01D901AC0DBF
S1133470BD1D0E946E6F802D81932F5F3F4F809101
S11334807201909173012817390780F3C09170017C
S1133490D091710111E027E0C135D20709F0F7C1DD
S11334A08FB7F8949927209148078FBF332727FDBA
S11334B030952430310509F49BC0253031053CF4A6
S11334C02230310569F023303105D1F0E0C12530D7
S11334D0310509F4FDC0283031050CF0D8C1B9C15B
S11334E080915307813009F0D2C160E170E0CE01D0
S11334F00E946714882309F4CAC183E090E0D3C012
S1133500809156079927AA27BB27892B41F481E08C
S113351090E0909349078093480780E030C0809101
S11335205707282F332780910A0C90910B0C820F98
S1133530931F079690930B0C80930A0C295F3F4FBF
S1133540B901CE010E946714282F882341F481E039
S113355090E09093490780934807822F10C0809190
S11335605607282F3327442755272F3F310551F479
S113357081E090E09093490780934807812F0E944F
S11335806E0B8BC18091530790915407A0915507FE
S1133590B0E08F3F6FEF96076FEFA60760E0B607C6
S11335A0D1F02E3F3105B9F0EE24F82E092F1A2F51
S11335B0822F9927AA27BB27E82AF92A0A2B1B2B33
S11335C08091570799279C01AE01495F5F4FC8015D
S11335D0B7010E94961483E090E09093490780938A
S11335E0480780910A0C90910B0CAA27BB2726C18F
S11335F080915307813061F110935307109354075E
S1133600109256071092550789E080935707FE01E0
S1133610379688E090E0119201972FEF8F3F920741
S1133620D1F760E170E081E597E00E94841480E1C5
S113363090E090930B0C80930A0C00E110E020E0E2
S113364030E041E557E060E070E080E090E0DDC00C
S113365060E170E0CE010E946714E82F8823E1F452
S113366081E090E0909349078093480780912D076B
S113367090912E07A0912F07B09130078070209170
S1133680340C332744275527822B932BA42BB52B9B
S1133690AC01BD018E2FF8C080915307813009F031
S11336A0D8C085E090E090934907809348078091C3
S11336B00A0C90910B0C409690930B0C80930A0C7F
S11336C0AA27BB2707E110E020E030E0AE01BCC030
S11336D0809156079927AA27BB278F3F910549F464
S11336E086E090E090934907809348070E94EB1985
S11336F0D4C08091570799270796BC01CE010E9438
S11337006714282F40912D0750912E0760912F07A1
S113371070913007882391F481E090E090934907F9
S11337208093480740708091340C9927AA27BB27BF
S1133730482B592B6A2B7B2B822FA6C0452F562F43
S1133740672F77278091530790915407A0915507CD
S1133750B0E0481759076A077B0709F05EC08091FB
S113376056079927AA27BB272091340CE22FFF275D
S1133770E817F90709F04CC0B62FA52F942F882716
S1133780332744275527822B932BA42BB52B20E1D9
S113379030E0AE01495F5F4FBC01CD010E942B16A2
S11337A08C0180915707682F77270617170719F0A0
S11337B08EEF80935607695F7F4FCE010E94841479
S11337C040910A0C50910B0C80915707282F3327F6
S11337D0CA01820F931F079690930B0C80930A0CD7
S11337E00217130729F48091340C8F5F8093340CF3
S11337F06A01EE24FF24295F3F4FC901AA27BB2792
S11338008C019D01AE01C701B6010E94BE1845C0DE
S1133810E817F90714F410931904809157072091BD
S11338200A0C30910B0C280F311D295F3F4F309348
S11338300B0C20930A0CC901AA27BB2707E110E04F
S113384020E030E041E557E0BC01CD010E941C1AA4
S113385024C081E090E090934907809348078091C9
S11338602D0790912E07A0912F07B09130078070FB
S11338702091340C332744275527822B932BA42BD8
S1133880B52BAC01BD0180E00E94FB1706C081E0AE
S113389090E0909349078093480781E090E0DF919E
S11338A0CF911F910F91FF90EF90DF90CF900895EB
S11338B0CF92DF92EF92FF920F931F93CF93DF93F8
S11338C0FC01EB0179018A01C0904807D0904907B7
S11338D081E0C816D104E9F42D2F3E2F4F2F552730
S11338E0BB27A12F902F8F2D281739074A075B0775
S11338F081F4E0922D07F0922E0700932F07109386
S11339003007C093340C90912D079C1728F4109223
S1133910340C80E090E019C00E94971884E090E095
S1133920909349078093480710920B0C10920A0C4D
S113393000E110E020E030E041E557E060E070E0B5
S113394080E090E00E941C1AC601DF91CF911F9184
S11339500F91FF90EF90DF90CF9008950F931F93F6
S1133960CF93DF93EC018B0188819981823191059A
S113397009F47DC08331910520F4419709F46EC0A8
S11339808CC08032910521F080349105F9F085C016
S11339908B819C81AD81BE818093AD029093AE02F8
S11339A0A093AF02B093B00280E00E943E068091E3
S11339B0AD029091AE02A091AF02B091B0029C0111
S11339C0AD0160E0862F0E94B40A67C08B819C81A0
S11339D00597F9F48D819E81009721F486E00E9479
S11339E0AB0617C08130910521F486E00E94D00611
S11339F010C0029771F48091080C882321F0109272
S1133A00080C87E004C081E08093080C86E00E94E3
S1133A1086068B819C81069709F03FC08D819E812B
S1133A20009721F487E00E94D00637C081309105C9
S1133A3021F487E00E94AB0630C0029771F58091B3
S1133A40080C882321F01092080C87E004C081E060
S1133A508093080C86E00E9486061FC081E0809354
S1133A6078070E94840780E00E943E0616C0809179
S1133A707807882391F00E946B018091AD029091A8
S1133A80AE02A091AF02B091B0029C01AD0160E022
S1133A90862F0E94B40A109278078A818093730754
S1133AA0888199818233910509F4C8C083339105D3
S1133AB088F48032910509F469C08132910518F4C3
S1133AC04097C9F0FBC18033910529F1C19709F4EE
S1133AD08BC0F4C18433910509F404C18433910586
S1133AE008F4CEC08533910509F424C180349105CE
S1133AF009F463C1E3C188E10FB6F89481BD11BC38
S1133B000FBE88E190E029E00FB6F894A89581BD36
S1133B100FBE21BDFFCF11E010932A0728E030E04B
S1133B2043E15CE068E071E080E090E00E942B16E5
S1133B3022E030E04BE15CE061E071E080E090E0A5
S1133B400E942B1621E030E04DE15CE062E071E080
S1133B5080E090E00E942B1621E030E04EE15CE032
S1133B6064E073E080E090E00E942B1621E030E0F6
S1133B704FE15CE065E073E080E090E00E942B168A
S1133B801093110C10922A0781E810C1239687E044
S1133B9080932A0724E030E0AE0161E075E080E024
S1133BA090E00E94961421E035E040E050E0CA0124
S1133BB0B9010E94581C813009F480C11092110C83
S1133BC08091AD029091AE02A091AF02B091B0028B
S1133BD08093130C9093140CA093150CB093160CB3
S1133BE010922A0787E8E2C00F5F1F4F09F466C1ED
S1133BF0239683E080932A0722E030E0AE0161E05F
S1133C0071E080E090E00E94961421E031E040E011
S1133C1050E0CA01B9010E94581C813009F44EC118
S1133C201092110C80911F01909120019093140C1B
S1133C308093130C10922A0783E8B8C0239684E07B
S1133C4080932A0721E030E0AE0162E071E080E079
S1133C5090E00E94961422E031E040E050E0CA0176
S1133C60B9010E94581C813009F428C11092110C2A
S1133C70809111018093130C10922A0784E896C056
S1133C80239686E080932A0721E030E0AE0164E0C9
S1133C9073E080E090E00E94961424E033E040E07A
S1133CA050E0CA01B9010E94581C813009F406C1D0
S1133CB01092110C21E030E044E15CE065E073E037
S1133CC080E090E00E942B1621E030E043E15CE0CC
S1133CD064E073E080E090E00E942B1610922A07C3
S1133CE086E864C0239685E080932A0721E030E0CB
S1133CF0AE0165E073E080E090E00E94961425E058
S1133D0033E040E050E0CA01B9010E94581C813000
S1133D1009F4D4C01092110C21E030E043E15CE0DE
S1133D2065E073E080E090E00E942B1610922A0771
S1133D3085E83CC02B9682E080932A0728E030E097
S1133D4047E15CE068E071E080E090E00E942B16BF
S1133D5080911F01909120019093140C8093130C77
S1133D608FB7F894082F112722E030E0AE0161E00C
S1133D7071E080E090E00E9496140FBF21E031E0F2
S1133D8040E050E0CA01B9010E94581C813009F496
S1133D9095C01092110C80911F0190912001909375
S1133DA0160C8093150C10922A0782E880936C0DF0
S1133DB081E493E20E949F0381C08B819C814D81A9
S1133DC05E818130910509F45CC081309105F8F081
S1133DD082309105C9F1039709F070C0842F9FB711
S1133DE0F89487708093330C81FF02C0D99801C086
S1133DF0D99A8091330C82FF02C0D89801C0D89A16
S1133E0080FF02C0DA9801C0DA9A9FBF57C04130E0
S1133E10510551F04130510520F04230510539F03F
S1133E204DC00E943F0A4AC00E94690A47C08FB72A
S1133E30F894C82F8091330C81FF03C00E943F0A7D
S1133E403CC00E94690A39C04130510551F04130EB
S1133E50510520F04230510539F030C00E94310A3A
S1133E602DC00E944D0A2AC08FB7F894C82F8091A4
S1133E70330C80FF03C00E94310A1FC00E944D0A08
S1133E801CC04130510551F04130510520F0423001
S1133E90510539F013C00E94230A10C00E945B0A26
S1133EA00DC08FB7F894C82F8091330C82FF03C0E4
S1133EB00E94230A02C00E945B0ACFBFDF91CF9108
S1133EC01F910F910895EF92FF920F931F93CF9339
S1133ED0DF93EC018091170490911804019690935C
S1133EE0180480931704998580911101981719F08B
S1133EF09F3F09F011C180912B07813071F02E8111
S1133F003F818FEF2F3F380741F080911F0190913F
S1133F1020012817390709F0FFC080918D028823FA
S1133F2041F0CD5BDF4F8881C354D040813009F02C
S1133F30F3C0888533E4F32E9CEFF90EF7FEFCCF33
S1133F4027E4F22E99278A35910509F4C2C08B35EE
S1133F50910504F58D30910509F44AC08E30910520
S1133F605CF48B30910509F43DC08C3091050CF064
S1133F703CC00397A1F1CCC08033910509F442C041
S1133F80813391051CF40E97C1F1C2C0C39709F4A3
S1133F909DC0BEC0873F910509F4A7C0883F910525
S1133FA06CF48C35910509F49AC08C3591050CF4A8
S1133FB093C0863F910509F495C0AAC0893F910535
S1133FC009F49BC0893F91050CF492C08A3F910586
S1133FD009F496C08B3F910509F495C099C0BE01C0
S1133FE083E008C0BE018BE090C0BE018CE082C0BB
S1133FF0BE018DE00E9486448CC0BE018EE00E940A
S1134000F14087C08E01065F1F4F8A859B852091F2
S11340100F0830911008821B930B181619060CF028
S113402077C02F5F3F4F3093100820930F08E8802C
S11340304091300C842F992701969C012C7F31707C
S1134040821B930B2091870533278217930711F165
S11340504F9D900111248E2D9927AC01B801C901FF
S11340608C589B4F0E94FE038091300C8F9DC001A1
S1134070112486599B4F9C014E2D6FEF7FEF80E3F7
S11340800E949305813031F48091300C8F5F8370EE
S11340908093300C98012C5F3F4F99859F3F21F00E
S11340A0809111019817A1F5F80162817381FFEFE6
S11340B06F3F7F0739F080911F01909120016817AD
S11340C0790731F5C9010E94AE1C22C0BE0183E309
S11340D01CC0BE018AE50EC0BE018BE50BC0BE014B
S11340E08CE513C0BE0186EF05C0BE0187EF0DC08D
S11340F0BE0188EF0E949C3B0CC0BE0189EF05C045
S1134100BE018AEF02C0BE018BEF0E94B54001C020
S1134110CE01009709F0EC01CE01DF91CF911F9100
S11341200F91FF90EF9008950F931F93CF93DF9318
S113413090911A0D86E0989F800111240251144F2A
S1134140F801C481D581828193810597A0F12081F2
S1134150822F99278134910559F08234910524F4F2
S11341608034910541F121C08234910581F01DC054
S1134170CD5BDF4F81E08883C354D040F801818157
S113418080932E0889E39FE00E949F0306C0CD5BC5
S1134190DF4F81E08883C354D04080911101898727
S11341A0CE010E94631FEC0106C020938E028FE4AF
S11341B09FE00E949F038FB7F894282F33272097FE
S11341C019F0F801D583C483F80113821282118295
S11341D080911A0D8F5F817080931A0D2FBFDF912C
S11341E0CF911F910F9108958FB7F8949927E0917B
S11341F04D07F0914E07EB5BFF4F11821082E5549F
S1134200F0408FBF80910F04882321F4CF010E94D6
S1134210631FFC018FB7F8949927309721F0F0932E
S11342204E07E0934D07E0914D07F0914E07108241
S113423010921B0D8FBF0E940C040895CF93DF933F
S1134240EB01803339F460911F0170912001CA01A0
S11342500E94AE1CCE01DF91CF910895CFEFD0E143
S1134260DEBFCDBFD29AD09AD19AA79AA69AA59A20
S1134270A49AA39AA29AA19AA09ABB98BA9AB99A14
S1134280D69AD59AB89816988E988C98BF988E9886
S1134290D498DC98D39A8B9A8D9ADB9ADA9AD89A26
S11342A0D99A83E08C5F8739E8F38AE08093A70288
S11342B010924607109265048CE194E0FC0111828F
S11342C010823296029624E08A359207C1F3BCF339
S11342D00E94B3010E94B3018FB7F89499271092FA
S11342E04907109248071092340C8FBF109296021F
S11342F0D4980E94B3018FB7F894282F332787EC02
S113430093E090936907809368072FBF10926F0D15
S113431010926E0D8FEF91E09093200D80931F0DFE
S1134320D59A809161008F77809361008B9A8D9AE2
S113433089B78F7D89BFA49AAC9800000000000063
S11343400000000000000000000081B18295869505
S113435087708170AC9A000000000000000000002B
S1134360000000000000282F332727FD309581B17D
S113437082958695877099278170907028173907E0
S113438019F41092070C03C081E08093070CAC98D9
S11343908FB7F894282F332781E080936A0710920F
S11343A0760D1092750D109252082FBF15981D9A14
S11343B08093370C8093380C8093390C80933A0C9B
S11343C080933B0C80933C0C80E480933D0C809361
S11343D03E0C8FEF8093880586E080937C010E94D9
S11343E0E2018FB7F8941092610410926B07109257
S11343F01104109210041092AC021092AB021092AD
S11344001E0DE5E3F7E0119297E0E234F907D9F3E2
S1134410D4F38FBF0E94E20184E080938E05A19AB9
S1134420A29AA39AA49AA59AA69AAE9AA99AAD9882
S1134430AB98AA986EE187E00E9412020E942F02B4
S11344408FB7F894992710921D0D109293028FBF85
S113445089B78F7789BFA09A179A1F9AA89888E07E
S113446090E0A89A000000000000A898019797FF28
S1134470F8CF2EE130E089B78F7789BF179A1F9A5A
S1134480A89888E090E0A89A000000000000A8988E
S1134490019797FFF8CF179A1F9AA8980000000079
S11344A00000A89A0000000000001F98000000000F
S11344B00000A898000000000000A89A0000000076
S11344C000001F9A000000000000A89887E090E018
S11344D027FF02C01F9A01C01F98220F331FA89AFA
S11344E0000000000000000000000000A8980197F0
S11344F097FFEECF88E090E01798000000000000DE
S1134500A89A0000000000000F9B0CC0179A1F9A85
S1134510A898A89A000000000000A898019797FFA7
S1134520F8CF04C0000000000000A89880E090E0EC
S11345304FEF5FEF9C01F901E80FF91FE758F84FBF
S1134540558344835383428301962B5F3F4F8931C4
S113455091058CF38FB7F894992710926804109200
S11345601C0D1092090C8FBF0E946B010E949801D0
S11345700E946D450E949A040E94B301409148072D
S1134580509149074130510531F14115510519F553
S113459081E090E090934907809348078FB7F8949F
S11345A0282F332782E090E09093490780934807AF
S11345B050930B0C40930A0C109219042FBF00E186
S11345C010E020E030E041E557E060E070E080E09A
S11345D090E00E941C1ADC9A80919602882369F468
S11345E081E0809396028FE298E090937E0280931C
S11345F07D0281ED92E00E949F030E942E44FC0103
S1134600909394058093930581E8808B8091AD020B
S11346109091AE02A091AF02B091B0029C01AD01A5
S113462060E0862F0E94B40A8091080190910901EC
S1134630BC0181E00E942D410E94CF450E941712C7
S113464078948FB7F894482F552790916504E92FF3
S1134650FF27EE0FFF1FE45EFB4F20813181211500
S1134660310529F47894889500000000EACF11827E
S113467010829F5F9F71909365044FBFF901099564
S1134680E0CF0F931F93CF93DF93CDB7DEB722977D
S11346900FB6F894DEBF0FBECDBFAE014F5F5F4FC4
S11346A065E975E080E30E941F43FC01AC012DE045
S11346B03CE092E1D9018D919D01DA018D93AD0128
S11346C0915097FFF7CF82E6808380911F019091EC
S11346D020019383828380916C0D81838091730781
S11346E0858303E110E025E935E040E060E070E017
S11346F080E30E94994222960FB6F894DEBF0FBE63
S1134700CDBFDF91CF911F910F910895EF92FF924A
S11347100F931F93CF93DF9380917B0D90917C0D2A
S1134720FC0153E0EE0FFF1F5A95E1F7E81BF90B6C
S1134730E65BF94FC581D6812097E1F1E3800081E2
S11347401181F28090915108992359F581E0809369
S1134750510887E38F1518F49093510822C083E51C
S113476096E20E949F03882319F48093510819C08C
S1134770D0937607C0937507F8821F830E83E8866B
S1134780E0917507F091760781858F3F19F080914C
S11347901101818783E4845087FFFDCF81E090E09D
S11347A002C080E090E0892B41F486E893E20E9405
S11347B09F0303C081E08093210DDF91CF911F916E
S11347C00F91FF90EF900895382F2091870587E48B
S11347D0289FC001112486599B4F6817790721F43B
S11347E02F5F237020938705832F0E94DC44992731
S11347F00895DC0110925108FC01208580917B0D05
S113480090917C0DFC0173E0EE0FFF1F7A95E1F7A8
S1134810E81BF90BE65BF94F85819681A817B90768
S1134820B1F580912C07882361F0AC5BBF4F4C91AC
S1134830A454B040442329F4808191818E3791059A
S113484011F4462F05C084818F5F84838630D8F0AD
S1134850BD01822F0E94E42380917B0D90917C0DF9
S1134860FC0163E0EE0FFF1F6A95E1F7E81BF90B0B
S1134870E65BF94F1682158201968F7190709093C2
S11348807C0D80937B0D86E893E20E949F0381E078
S113489090E0089561E08FB7F894282F3327809132
S11348A0170D883019F460E06093170D2FBF8091C5
S11348B079029091820D803451F48FB7F894282FA7
S11348C0332782E098279093820D2FBF17C08FB7AC
S11348D0F894282F332784E098279093820D2FBFD4
S11348E080917602909177020E94F9238FB7F89411
S11348F0992710927702109276028FBF0E94D50EEC
S113490008958FB7F8949927209169048FBF2430B4
S1134910D9F48FB7F894282F332781E08093690462
S1134920E091030CF091040CEB5BFF4F11821082B9
S1134930E554F04080818B5080832FBF8499FECF53
S113494061E0CF010E94F92308958FE30E9472056C
S113495088E00E9419048FE30E94720588E00E9497
S113496019048FB7F894282F3327809169042FBF37
S113497082508330C8F48FB7F894282F3327E091FE
S1134980030CF091040CEB5BFF4F11821082E55491
S1134990F04080818B50808381E0809369042FBF35
S11349A060E0CF010E94F9230E940C040895CF9384
S11349B0DF93C0E0D0E085E00E94190480E00E940B
S11349C0190486958695869580FF9FC0849916C0A4
S11349D0219685E090E00000000000000000000047
S11349E0000000000000019718161906A4F323E044
S11349F0C93ED20708F0A0C0849BEACF20912D02C3
S1134A008091030C9091040C0A96BC01822F89506A
S1134A100E940B068FB7F8949927209169048FBFE1
S1134A20822F99270297029708F064C08FB7F894F1
S1134A30282F332784E0809369042FBF0E940C043D
S1134A40E091030CF091040CEC5BFF4F81E0808358
S1134A5080918605882321F4809162048823D1F013
S1134A60E091030CF091040C868197818F5F9F4F36
S1134A7089F0EC5BFF4F10828499FECF83E0809332
S1134A80AA0268E270E080E090E00E94870E88232A
S1134A9009F062C080910F04882329F18FB7F8943C
S1134AA09927209169048FBF243009F055C08FB72E
S1134AB0F894282F332781E080936904E091030C54
S1134AC0F091040CEB5BFF4F11821082E554F0402F
S1134AD080818B5080832FBF8499FECF61E0CF010A
S1134AE00E94F92339C081E894E20E949F0388233D
S1134AF099F522C08FB7F894282F332781E080934B
S1134B0069042FBF0E940C0419C00E94E9058F702C
S1134B10907001969C01E3E0220F331FEA95E1F7C0
S1134B20280F391F280F391F82E08093AA028FEFC4
S1134B302F3F380731F40EC00E94A52480E090E096
S1134B400DC0C901AA27BB27BC01CD010E94870E55
S1134B50882311F40E94A52481E090E0DF91CF9195
S1134B600895CF93DF938FB7F89499272091690420
S1134B708FBF8091AA0299278230910591F18330E9
S1134B8091051CF4019749F089C08330910509F41B
S1134B9067C0049709F478C081C01092AA0289B74B
S1134BA08F7B89BFC091030CD091040C89E00E94D3
S1134BB01904882331F0BE018AE00E940B06882381
S1134BC059F48FB7F894282F332781E08093690430
S1134BD02FBF0E94A52402C00E94D7240E940C0467
S1134BE05DC01092AA028FB7F89499278FBF225004
S1134BF0223008F053C0869B0EC08FB7F894282F3C
S1134C00332783E0809369042FBF89B78F7B89BFE3
S1134C100E94D72443C0809147078150809347075F
S1134C208F3F79F10E94E9058F70907001969C0185
S1134C30F3E0220F331FFA95E1F7280F391F280FED
S1134C40391F82E08093AA028FEF2F3F3807C9F003
S1134C50C901AA27BB27BC01CD010E94870E0FC042
S1134C601092AA022430D1F4E091030CF091040CC8
S1134C70EC5BFF4F108281E894E20E949F0388233B
S1134C8069F40E94A5240AC01092AA028FB7F8946E
S1134C90282F332781E080938F022FBF81E090E09B
S1134CA0DF91CF9108951F93CF93DF93CDB7DEB7F4
S1134CB022970FB6F894DEBF0FBECDBFE091750703
S1134CC0F0917607868197818E379105B9F461E07A
S1134CD08FB7F8949091820D92FD08C094609093E0
S1134CE0820DF0937702E093760201C060E08FBFFB
S1134CF0613009F081C00E94D50E7DC08EE190E044
S1134D000000019718161906DCF38FB7F894282FC2
S1134D10332790916904913019F482E080936904F7
S1134D202FBF913009F065C088E0828380918605A9
S1134D30882319F081E2818301C091838FEF9FEF73
S1134D40958384832681378181E089831A828981CE
S1134D509A81019711F4A90102C0432F522F57835E
S1134D6046838081855F80838FB7F894282F33270B
S1134D7080916C078F5F80936C0783838081992770
S1134D80029790932E0280932D02F093040CE093EB
S1134D90030C2FBF0E94E9058F70907001969C014F
S1134DA0A3E0220F331FAA95E1F7280F391F280F1C
S1134DB0391F11E01093AA022115310519F40E943C
S1134DC0B12509C0C901AA27BB27BC01CD010E9496
S1134DD0870E882331F088E08093470781E090E0D4
S1134DE00AC08FB7F8949927109369048FBF0E9463
S1134DF00C0480E090E0682F662331F480917507FD
S1134E00909176070E94F92322960FB6F894DEBF9C
S1134E100FBECDBFDF91CF911F91089580917C018A
S1134E20853009F054C082E080937C01909188051C
S1134E309093120480916F07682F7727A1E0B0E068
S1134E40492FE7E3FCE020E030E057E0CB01022EFD
S1134E5002C0959587950A94E2F780FF09C0CD01B9
S1134E60022E02C0880F991F0A94E2F78095482306
S1134E70808186FD08C0CD01022E02C0880F991FD3
S1134E800A94E2F7482B51502F5F3F4F319657FF5A
S1134E90DDCF409312048FB7F894282F332781E095
S1134EA0809328012FBF282F42E154E0682F8FE31D
S1134EB00E940607282F3327222371F48FB7F89412
S1134EC09927209328018FBF85E080937C018EE091
S1134ED097E20E949F03089510926F070895AB0113
S1134EE099278630910509F45BC087309105A4F4B5
S1134EF08230910509F439C0833091052CF4009770
S1134F0031F1019759F17DC08430910509F43BC01A
S1134F1005970CF03FC030C08A30910509F458C0A1
S1134F208B30910544F48830910509F445C0099704
S1134F300CF048C03BC08C30910509F455C08C304E
S1134F4091050CF44BC00D9709F454C05AC06F5F1F
S1134F507F4F09F456C060E0862F51C06F5F7F4FCA
S1134F6009F44FC060E081E04AC06F5F7F4F09F4ED
S1134F7048C060E082E043C06F5F7F4F09F441C0E6
S1134F8060E083E03CC06F5F7F4F09F43AC060E0AB
S1134F9084E035C06F5F7F4FA1F160E085E02FC0F2
S1134FA06F5F7F4F71F160E086E029C06F5F7F4FD4
S1134FB041F160E087E023C06F5F7F4F11F160E053
S1134FC088E01DC06F5F7F4FE1F060E089E017C0AB
S1134FD06F5F7F4FB1F060E08AE011C06F5F7F4F79
S1134FE081F060E08BE00BC06F5F7F4F51F060E0B9
S1134FF08CE005C06F5F7F4F21F060E08DE00E9480
S1135000D70781E090E00895282FFB0180912501C6
S1135010882319F481E090E008958FB7F8949927D4
S1135020109225018FBF223081F18FB7F894992710
S1135030109261048FBFAE9A8FB7F894482F55270A
S1135040E091800D21E030E00E2E02C0220F331FCC
S11350500A94E2F720953095809110049091110400
S11350608223932390931104809310044FBF6FEF16
S11350707FEF8E2F0E946F278BEA9AE20E949F0394
S11350800E94600780E090E008958091610482307E
S113509009F08AC021818081992787FD9095982FF6
S11350A0882780709F70820F911D20919105309107
S11350B09205280F391F3093920520939105409152
S11350C01108415040931108442309F063C08FB77D
S11350D0F8949927409361048FBFA091800DEA2F23
S11350E0FF27EB5CF84F8081992782FF08C0285F77
S11350F03F4F94E0369527959A95E1F713C081FFC9
S113510008C02C5F3F4F83E0369527958A95E1F7D9
S113511008C080FF0BC02E5F3F4F3695279536950C
S113512027953F703093920520939105AE9A8FB7DF
S1135130F894282F3327809123018F5F80932301D4
S11351402FBF813001F18FB7F894482F552721E004
S113515030E00A2E02C0220F331F0A94E2F7209592
S1135160309580911004909111048223932390939D
S11351701104809310044FBF6091910570919205C2
S11351808A2F0E946F278BEA9AE20E949F030E9453
S113519060070AC08FB7F894282F332783E08093E1
S11351A061042FBF0E94230981E090E00895282F15
S11351B080912601882341F0813049F08FB7F8941B
S11351C09927109226018FBF81E090E008958FB750
S11351D0F8949927109226018FBF222321F520935A
S11351E06104AE9A8FB7F894482F5527E091800D4B
S11351F021E030E00E2E02C0220F331F0A94E2F7A2
S1135200209530958091100490911104822393236A
S113521090931104809310044FBF6FEF7FEF8E2F94
S11352200E946F271EC030916104313019F522E0CD
S1135230209361048FB7F8949927309325018FBF89
S113524043E0622F8AE40E94AE09282F33272223E9
S113525089F48FB7F8949927209325018FBF209361
S113526061048BEA9AE20E949F030E94600780E037
S113527090E0089581E090E008950F931F93CF93F9
S1135280DF93CDB7DEB722970FB6F894DEBF0FBE1B
S1135290CDBF80916E07882309F054C08FB7F8946E
S11352A0282F332781E080936E072FBF80916807F2
S11352B090916907AE014F5F5F4FBC0183E30E9489
S11352C01F438C0189E392E09093900580938F05AE
S11352D0D80120E030E095E1E0918F05F091900550
S11352E0E20FF31F80818D9391502F5F3F4F97FF03
S11352F0F3CF80910601882311F086E001C087E096
S1135300F801818381E8F80180830E94953CF801CB
S113531093838283818180688183809168079091DF
S1135320690706E110E09C0140E060E070E083E37F
S11353300E949942813031F08FB7F89499271092E6
S11353406E078FBF22960FB6F894DEBF0FBECDBF97
S1135350DF91CF911F910F9108958F929F92AF92F9
S1135360BF92CF92DF92EF92FF920F931F93CF934E
S1135370DF93CDB7DEB721970FB6F894DEBF0FBE2B
S1135380CDBF8FB7F894282F332780910E0488233C
S113539011F010920E048090AB029090AC02AA24FB
S11353A0DA2C2FBFCA2CE5E3F7E0819186FF03C016
S11353B031E0A32E04C0C3948DE08C15B0F7CC2447
S11353C000E010E081E090E0002E02C0880F991FF9
S11353D00A94E2F788219921892B21F48BE0C816DD
S11353E009F09FC005301105B9F106301105A4F488
S11353F00230110541F1033011053CF4011511058A
S1135400E1F001301105E1F037C003301105F1F08E
S113541004301105F1F030C00B30110524F40730CD
S1135420110504F51CC00C30110509F10C301105EF
S1135430E4F00D301105F1F01FC028E0D22E1CC09D
S11354409CE0D92E19C089E0D82E16C0BDE0DB2E11
S113545013C0AAE0DA2E10C0FEE0DF2E0DC0EBE090
S1135460DE2E0AC07FE0D72E07C0DD2405C061E030
S1135470D62E02C052E0D52E8D2D8295807F898351
S1135480AA2011F08F6089838FB7F894992723E0BD
S1135490209326018FBF41E0B42EAE014F5F5F4FD2
S11354A06B2D8AE40E940607282F3327222301F557
S11354B08FB7F894E82EFF242093260180910E04E0
S11354C0882331F48DEA99E20E949F03B0920E047E
S11354D0EFBE8AE090E00000000000000000000041
S11354E0000000000000019718161906A4F319C063
S11354F08FB7F894482F552721E030E0002E02C0E2
S1135500220F331F0A94E2F7209530958091AB0265
S11355109091AC02822393239093AC028093AB02CC
S11355204FBFC3940F5F1F4F8DE08C1508F04ACF17
S113553021960FB6F894DEBF0FBECDBFDF91CF9199
S11355401F910F91FF90EF90DF90CF90BF90AF909D
S11355509F908F9008950F931F93CF93DF93409163
S11355606104442309F0DCC08FB7F894282F332753
S113557084E0809361042FBF20916B07222339F4C8
S11355808FB7F8949927209361048FBFC9C08FB750
S1135590F894992710929205109291056091100445
S11355A070911104542F4091800D4F5F8FBF4E3086
S11355B008F0452F21E030E0C901042E02C0880F15
S11355C0991F0A94E2F786239723892B49F44F5FA6
S11355D04E3008F040E05F5F5E3008F09CC0ECCFD6
S11355E08FB7F894082F11274093800D90E0C42FB3
S11355F0DD27DE01AB5CB84F8C9183FF02C091E0E4
S1135600AA9ABE01FD01808184FF02C09F5FAB9A0C
S1135610808185FF02C09F5FAD9A9111A99891E0A6
S1135620909311088081282F332720FF03C084E042
S11356308093110821FF03C088E08093110822FFA2
S113564003C080E1809311080FBF4750443008F035
S113565056C0AE9A6930710569F06A30710524F458
S11356606830710529F002C02A9731F020EC05C09A
S113567020E303C02CE001C023E08FB7F8949927FE
S113568061E0609324018FBFC0918E05C43009F599
S113569082E080938E0520936B0D8FB7F894992741
S11356A0609322018FBF23E04BE65DE08BE40E9410
S11356B00607282F3327222349F48FB7F894992714
S11356C0209322018FBFC0938E0503C081E090E038
S11356D002C080E090E0282F3327222309F58FB7FA
S11356E0F894992720932401209361048FBFAE9AE4
S11356F08BEA9AE20E949F030E94600711C08C917A
S113570087FF0CC024E630E040E050E0692F8BE0D6
S11357100E94B40A05C01092610402C00E942309C9
S1135720DF91CF911F910F910895AB019927833099
S11357309105D9F0843091054CF48130910579F0CC
S1135740823091057CF4892B39F019C0853091059C
S113575091F005976CF013C064E080E00EC064E043
S113576081E00BC064E082E008C064E083E005C02F
S113577064E0862F02C064E085E00E94D70781E0E0
S113578090E00895AF92BF92CF92DF92FF920F9371
S11357901F93CF93DF93282FFB0180912701882348
S11357A009F4D2C08FB7F8949927109227018FBFBC
S11357B0608160931204213049F085E080937C017C
S11357C089B7806189BF80E090E0C0C080917C018E
S11357D0863041F46093880585E080937C0189B725
S11357E0806189BF80917C01882309F0ADC020933A
S11357F02901F62EF09480918805F822809586235D
S1135800F82AC0E0D0E00DE711E05E0147E3C42EC2
S11358104CE0D42EF6018081282F332726FD7CC04E
S113582087FF20C08091120499270C2E02C0959501
S113583087950A94E2F79C012170307080FF06C0BE
S113584081E090E0F8019183808305C0F501E3587D
S1135850FE4F31832083F801608171818C2F0E9477
S1135860952B5AC08F2D99270C2E02C0959587959C
S11358700A94E2F780FF50C020FF24C0809188057D
S113588099270C2E02C0959587950A94E2F780FD1E
S113589019C08091120499270C2E02C09595879502
S11358A00A94E2F780FF0EC022FF06C0F80160816F
S11358B071818C2F0E94952BF80180819181019632
S11358C091838083F6018081282F332721FF24C010
S11358D08091880599270C2E02C0959587950A9486
S11358E0E2F780FF19C08091120499270C2E02C0A0
S11358F0959587950A94E2F780FD0EC022FF06C0B5
S1135900F801608171818C2F0E94952BF8018081B0
S1135910918101969183808321960894C11CD11CA6
S113592082E090E0A80EB91E080F191FC830D105F7
S11359300CF470CF809112048093880589B780613C
S113594089BF85E080937C0181E090E0DF91CF9175
S11359501F910F91FF90DF90CF90BF90AF9008956B
S11359600F931F93CF930091850D1092850D802F77
S113597099278F709070019709F063C010E0C7E019
S1135980110F0E94DC09813009F41160C150C7FF76
S1135990F7CF80914507E82FFF27E7FDF09565E2F3
S11359A07CE0EC5DF34F10838F5F8093450720917B
S11359B04A07821751F480917207992787FD9095C1
S11359C0969587959695879509C082175CF4809182
S11359D07207992787FD90959695879581700E9407
S11359E0490725C028171CF586E18093690D70933B
S11359F07B0160937A018091720780FF03C00E944B
S1135A00380715C083E68093690D80914D0C992762
S1135A108A34910549F08B3491054CF4CF9739F4CD
S1135A20822F0E94C22B03C0822F0E940428007F71
S1135A3019F0899A919802C0899A919A0E94040A4D
S1135A4049C1023009F092C0C091FA0B899A17E05B
S1135A50C7FF02C0919A01C091980E94040ACC0F1A
S1135A60115017FFF5CF0E94DC0920E030E08823B5
S1135A70C9F083E68093690D80914D0C99278A348F
S1135A80910561F08B3491051CF4CF9729F022C164
S1135A908B34910529F01EC1822FFBC0822FFDC0DB
S1135AA0822FFFC08091690D8B30E9F48091450706
S1135AB020914A0782170CF00DC1982F9F5F909395
S1135AC04507921719F482E08093690D892F99276D
S1135AD087FD9095E0917A01F0917B01E80FF91F21
S1135AE03197808178C0823001F583E08093690D1D
S1135AF08091720780FF03C00E943807EBC083E6E1
S1135B008093690D80914D0C99278A34910509F48D
S1135B10C3C08B34910524F4CF9709F4B9C0DAC01B
S1135B208B34910509F4BCC0D5C0853109F0D2C0CD
S1135B309091450780914A07981751F48091720714
S1135B40992787FD909596958795969587950AC090
S1135B5098170CF0BFC080917207992787FD909524
S1135B609695879581700E944907B4C0033009F067
S1135B704EC0919A909A899A85E090E000000000C6
S1135B80000000000000000000000000019718164B
S1135B901906A4F3919885E090E00000000000004D
S1135BA0000000000000000000000197181619060C
S1135BB0A4F390988091690D8A3081F48BE08093EE
S1135BC0690D8091720790914D0C87FF02C0892F57
S1135BD002C0892F880F0E940F097CC0843109F00C
S1135BE079C085E18093690D8091720790914D0C85
S1135BF087FF02C0892F03C0892F880F8F5F0E94FF
S1135C000F09809145078F5F8093450763C0043077
S1135C1009F060C0899A919885E090E00000000046
S1135C2000000000000000000000000001971816AA
S1135C301906A4F3909A85E090E0000000000000AB
S1135C40000000000000000000000197181619066B
S1135C50A4F3919A90914D0C20914A0760917A0196
S1135C6070917B018091690D8330F1F483E6809318
S1135C70690D892F99278A34910571F08B34910528
S1135C801CF4CF9729F026C08B34910549F022C02B
S1135C9081E00E94F7081EC081E00E94D7281AC044
S1135CA081E00E94240B16C08631A1F483E6809320
S1135CB0690D892F99278A34910549F08B34910510
S1135CC04CF4CF9739F4822F0E94C22B03C0822F49
S1135CD00E940428CF911F910F910895282FE82F37
S1135CE0FF27DF01AE0FBF1FA358BE4F6D917C91FC
